:1000000026C1000055C1000053C1000051C10000CD
:100010004FC100004DC100004BC1000049C10000AC
:1000200047C1000045C1000043C1000041C10000BC
:100030003FC100003DC100003BC1000039C10000CC
:1000400037C1000035C1000033C1000031C10000DC
:100050002FC100002DC100002BC100000C9499207D
:1000600027C100000C945F1D0C94431E21C10000A9
:100070001FC100001DC100001BC1000019C100000C
:1000800017C1000015C1000013C1000011C100001C
:100090000C94921D0C94821E0BC1000009C100003B
:1000A00007C1000005C1000003C1000001C100003C
:1000B000FFC00000FDC00000FBC00000F9C0000050
:1000C000F7C00000F5C00000F3C000000C94C51D8F
:1000D0000C94C11EEDC000000C94F81D0C94001F80
:1000E000E7C00000B021B321A621AA21EA21B7214F
:1000F000BB21C121C521C921CF21D321D721EA218B
:10010000DD21E121E521C922CE22D322DD225623A1
:10011000E722EF22F72201230B23152324232E238A
:100120005623382342234C230000090A02080B0CF3
:100130000D0706030401000000000000000000009D
:1001400000000000000000000000000000000000AF
:100150000000000011100F0000000000000000006F
:10016000000000000000000000000000000001028C
:1001700010202008081020401020408002010201B9
:100180000804020101020408102040808040201071
:1001900008040201800402018040201008040201CA
:1001A0000804020101020408102040800102040832
:1001B000102040800505050507050808080802020B
:1001C00002020A0A080804040404010101010101F1
:1001D00001010303030303030303040707070C0CD4
:1001E0000C0C0C0C0C0C020202020606060606069B
:1001F00006060B0B0B0B0B0B0B0B00002000230058
:10020000260029002C002F0032000001000003010D
:100210000601090100002200250028002B002E0005
:100220003100340002010000050108010B0100004B
:100230002100240027002A002D0030003300010196
:100240000000040107010A017804C71F7E0411247D
:100250001FBECFEFD1E2DEBFCDBF00E00CBF15E087
:10026000A0E0B2E0E8ECFDE400E00BBF02C00790C4
:100270000D92AE36B107D9F718E0AEE6B5E001C091
:100280001D92AE3FB107E1F711E0C6E2D1E000E018
:1002900006C021970109802FFE010E949923C432D4
:1002A000D10780E00807A9F70E949F1C0C94D32671
:1002B000A7CE0895CF93DF93EC01CB0179836883B8
:1002C000FE01EA5FFD4F51834083662757FD60952D
:1002D000762F0E943F1FFE01EE5FFD4F80E197E207
:1002E000A0E0B0E080839183A283B383229680E074
:1002F00092E0FE019C01119221503040E1F7DF9124
:10030000CF910895CF93DF93EC01CB01798368837C
:10031000FE01EA5FFD4F20E835E23183208340E8AB
:1003200055E260E070E00E943F1FFE01EE5FFD4F6E
:1003300080E197E2A0E0B0E080839183A283B38361
:10034000229680E092E0FE019C0111922150304003
:10035000E1F7DF91CF910895FC01808191810895AB
:100360009F92AF92BF92CF92DF92EF92FF920F9344
:100370001F93CF93DF93CDB7DEB7A0970FB6F89456
:10038000DEBF0FBECDBF7C01CE0149960E94CE12CA
:100390008E010F5E1F4FC8010E94CE1288E0B82E5A
:1003A000A02E912E670182E0C80ED81EF701808131
:1003B0009181DC01ED91FC910480F581E02D19958E
:1003C000892B99F5CE0109960E94CE12FE0139962D
:1003D000AA2DB92D8B2D01900D928A95E1F7D601AA
:1003E0004D915D916D917C91CE0109960E94131300
:1003F0008E01075E1F4F29893A894B895C896D8977
:100400007E898F89988D0E941D1329833A834B839F
:100410005C836D837E838F839887005111090E94CE
:100420007913882319F280E001C081E0A0960FB60D
:10043000F894DEBF0FBECDBFDF91CF911F910F911A
:10044000FF90EF90DF90CF90BF90AF909F90089576
:100450009F92AF92BF92CF92DF92EF92FF920F9353
:100460001F93CF93DF93CDB7DEB7A0970FB6F89465
:10047000DEBF0FBECDBF6C01CE0149960E94CE12E9
:100480008E010F5E1F4FC8010E94CE12F8E0BF2EF2
:10049000A02E912ED6018D919C91DC01ED91FC91C5
:1004A0000680F781E02D199597FF2DC0CE010996A2
:1004B0000E94CE12FE013996AA2DB92D8B2D0190E6
:1004C0000D928A95E1F78E01075E1F4F29893A89BF
:1004D0004B895C896D897E898F89988D0E941D1357
:1004E00029833A834B835C836D837E838F839887D4
:1004F0001AE0E12EF12C00E010E00E94F1138111CE
:10050000C9CF8FEF9FEFA0960FB6F894DEBF0FBE56
:10051000CDBFDF91CF911F910F91FF90EF90DF90B2
:10052000CF90BF90AF909F9008950F931F93CF935C
:10053000DF93EC018B016CE672E00E945619C80152
:1005400087DF97FD05C0682FCE010E94381AF7CFCC
:10055000CE01DF91CF911F910F910895AF92BF927D
:10056000CF92DF92EF92FF920F931F93CF93DF937F
:10057000CDB7DEB7C850D2400FB6F894DEBF0FBE7D
:10058000CDBF8C015B016A0140E050E0BA010E94DE
:1005900022178EE292E0F801918380837801F0E1E6
:1005A000EF0EF11CC70185DEF801B786A686B601FD
:1005B000CE010196A7DE28E032E0FE013196D70198
:1005C00001900D9221503040D9F7C85FDD4F0FB632
:1005D000F894DEBF0FBECDBFDF91CF911F910F9179
:1005E000FF90EF90DF90CF90BF90AF900895DF9293
:1005F000EF92FF920F931F93CF93DF93CDB7DEB7A8
:10060000C054D1090FB6F894DEBF0FBECDBF8C0128
:100610007B0167E072E0CE0101960E94561942E02C
:1006200050E0BE016F5F7F4FC7010E94921AD82E23
:10063000CE0101960E94EB18DD20C1F06CE072E063
:10064000CE0101960E945619BE016F5F7F4FF801DF
:100650008685978518D5CE0101960E94EB18F80182
:1006600066857785CE01019660DFBAC060E172E0F1
:10067000CE0101960E94561942E050E0BE016F5F24
:100680007F4FC7010E94921AD82ECE0101960E9478
:10069000EB18DD2009F4AAC0B701CE0149960E94EB
:1006A0007F19F80166857785AE01475E5F4FCE0101
:1006B00001960E942A0FCE0149960E94EB186B8585
:1006C0007C854AE0CE01C5960E94B4194F815885B9
:1006D00069857A852AE0CE0187960E94DF19BE01DE
:1006E0006F5F7F4FCE0149960E947F1965E172E0EE
:1006F000CE0149960E945C1ABE01695D7F4F0E943F
:100700004B1A65E172E00E945C1ABE016B5C7F4F80
:100710000E944B1A65E172E00E945C1ABE016D5E98
:100720007F4F0E944B1ABC01CE01CB960E947F19CD
:100730007FD3BE01655C7F4FD2D3CE01CB960E94A2
:10074000EB18CE0149960E94EB18CE0187960E94C5
:10075000EB18CE01C5960E94EB18BE016D5E7F4F6F
:10076000CE0149960E947F19BE01675E7F4FCE0180
:100770008796C8D0CE0149960E94EB18CE01879685
:10078000B7D18EA58823E1F0BE01615D7F4FCE0118
:10079000C5960E947F19F80166857785AE014B5C8E
:1007A0005F4FCE01499693D7CE0181960E94EB18F8
:1007B000CE014B960E94EB18CE01C5960E94EB1815
:1007C000CE018F960E94EB18CE0188960E94EB18FE
:1007D000CE0143960E94EB18CE010D960E94EB18B5
:1007E000CE0101960E94EB1881E001C080E0C05C60
:1007F000DF4F0FB6F894DEBF0FBECDBFDF91CF91B4
:100800001F910F91FF90EF90DF900895DF92EF928C
:10081000FF920F931F93CF93DF93CDB7DEB72C9743
:100820000FB6F894DEBF0FBECDBF8C01DC011E9663
:100830008D919C911F9790DDDC01ED91FC910480DE
:10084000F581E02D1995F80170967F01892B31F122
:10085000D8011E966D917C911F97CE01079665DE9B
:10086000BE01695F7F4FCE0101960E947F19BE01D4
:100870006F5F7F4FC801BBDED82ECE0101960E946C
:10088000EB18D11007C0C70167DDBE01695F7F4F5C
:100890000E94B21BCE0107960E94EB18C7015CDDD7
:1008A000DC01ED91FC910480F581E02D1995892BF7
:1008B00089F0B701CE01019638DEF801868597856B
:1008C0004BDDBE016F5F7F4F0E94B21BCE010196D0
:1008D0000E94EB182C960FB6F894DEBF0FBECDBF6A
:1008E000DF91CF911F910F91FF90EF90DF900895CE
:1008F0006CE672E08EE695E00C9456198EE695E073
:100900000C94EB18EF92FF920F931F93CF93DF930A
:10091000EC017B018C010F5F1F4F6CE672E0C80198
:100920000E9456196CE672E0CE0108960E94561994
:100930001F82B701C801DF91CF911F910F91FF90E6
:10094000EF900C946A192F923F924F925F926F92A0
:100950007F928F929F92AF92BF92CF92DF92EF924F
:10096000FF920F931F93CF93DF9300D000D0CDB7AA
:10097000DEB77C018B016CE672E00E9456195701CC
:1009800086E0A80EB11C6CE672E0C5010E94561903
:1009900037018CE0680E711C6CE672E0C3010E94A6
:1009A00056190F5F1F4F69E0C8010E94031B1C010D
:1009B0006AE0C8010E94031B2C01121413040CF0FE
:1009C00061C041018FEF881A980AA40169E0C8014B
:1009D0000E94E71A6C01910140E050E0B801CE019D
:1009E0000196D7FE1EC00E94261BBE016F5F7F4F7F
:1009F000C7010E946A19CE0101960E94EB1892016C
:100A0000A401B801CE0101960E94261BBE016F5FB2
:100A10007F4FC5010E946A19CE0101960E94EB1812
:100A200048C00E94261BBE016F5F7F4FC7010E9416
:100A30006A19CE0101960E94EB189601A401B80133
:100A4000CE0101960E94261BBE016F5F7F4FC5013C
:100A50000E946A19CE0101960E94EB18A6014F5F11
:100A60005F4F9201B801CE0101960E94261BBE0184
:100A70006F5F7F4FC3010E946A19CE0101960E94E9
:100A8000EB181CC09C0140E050E0B801CE0101967B
:100A90000E94261BBE016F5F7F4FC7010E946A192B
:100AA000CE0101960E94EB186CE672E0C5010E942F
:100AB00087196CE672E0C3010E948719C701269668
:100AC0000FB6F894DEBF0FBECDBFDF91CF911F915F
:100AD0000F91FF90EF90DF90CF90BF90AF909F90DD
:100AE0008F907F906F905F904F903F902F900895E0
:100AF000AF92BF92CF92DF92EF92FF920F931F932C
:100B0000CF93DF93CDB7DEB7EF970FB6F894DEBF84
:100B10000FBECDBF8C01BC01CE01819614DF60E316
:100B200072E0CE0181960E94731A8823A9F0CE014B
:100B300087960E946A1B862F61E00E94EB21CE01FE
:100B40008D960E946A1BF62ECE0187960E946A1B24
:100B5000862F6F2D0E9427226DE372E0CE018196D1
:100B60000E94731A882399F181E0F8018783CE01EE
:100B700087960E946A1B862F0E9456224AE0BC017B
:100B8000CE0101960E94B41969E472E0CE01C396C9
:100B90000E945619BE01695D7F4FCE01C3960E9427
:100BA0004B1A6BE672E00E945C1ABE016F5F7F4FCA
:100BB0000E944B1ABC01C80108960E946A19CE0116
:100BC000C3960E94EB18CE0101960E94EB1866E5D1
:100BD00072E0CE0181960E94731A882399F181E018
:100BE000F8018783CE0187960E946A1B862F0E9498
:100BF0007E224AE0BC01CE0101960E94B41961E652
:100C000072E0CE01C3960E945619BE01695D7F4F06
:100C1000CE01C3960E944B1A6BE672E00E945C1AEA
:100C2000BE016F5F7F4F0E944B1ABC01C80108963E
:100C30000E946A19CE01C3960E94EB18CE0101965C
:100C40000E94EB186DE672E0CE0181960E94731A45
:100C5000882371F0CE018D960E946A1B6B017C0186
:100C6000CE0187960E946A1B862FB6010E94A3229E
:100C700069E772E0CE0181960E94731A8823A9F079
:100C8000CE018D960E946A1B462FCE0187964FAFEC
:100C90000E946A1B4FAD89EF98E00E94612364E6D1
:100CA00070E080E090E00E94142165E872E0CE01DF
:100CB00081960E94731A8823A9F181E0F801878345
:100CC000CE0187960E946A1B89EF98E00E945F23FD
:100CD000682F70E04AE0CE0101960E94B41960E9E5
:100CE00072E0CE01C3960E945619BE01695D7F4F26
:100CF000CE01C3960E944B1A6BE672E00E945C1A0A
:100D0000BE016F5F7F4F0E944B1ABC01C80108965D
:100D10000E946A19CE01C3960E94EB18CE0101967B
:100D20000E94EB186CE972E0CE0181960E94731A62
:100D3000882311F181E0F801878320E030E040E270
:100D400050E0BE016F5F7F4FCE0187960E94B81AB8
:100D5000CE0101967C01C12CD12CF70141917F017C
:100D6000B60189EF98E00E946123FFEFCF1ADF0AF6
:100D700080E2C816D10489F764EA72E0CE01819658
:100D80000E94731A8823B9F181E0F8018783CE01AC
:100D900001966C01E12CF12C5C01B70189EF98E020
:100DA0000E945F23F60181936F01FFEFEF1AFF0AA4
:100DB00080E2E816F10489F7B501CE01C9960E94D8
:100DC000561960E972E0CE01C3960E945619BE0121
:100DD000675C7F4FCE01C3960E944B1ABC01C801CD
:100DE00008960E946A19CE01C3960E94EB18CE01A4
:100DF000C9960E94EB18CE018D960E94EB18CE0189
:100E000087960E94EB18CE0181960E94EB18EF9610
:100E10000FB6F894DEBF0FBECDBFDF91CF911F910B
:100E20000F91FF90EF90DF90CF90BF90AF9008951B
:100E3000CF93DF938091740590917505892B79F498
:100E400089E092E00E949B1CD82FC92FE82FF92F30
:100E50001192CF012EDAD0937405C093750580915D
:100E6000740590917505DF91CF9108950F931F93AD
:100E7000CF93DF93CDB7DEB7C850D2400FB6F8940A
:100E8000DEBF0FBECDBF8C01CE01019613DA28E084
:100E900032E0FE013196D801119601900D92215059
:100EA0003040D9F7C85FDD4F0FB6F894DEBF0FBEF4
:100EB000CDBFDF91CF911F910F910895CF93DF9315
:100EC000FC012081222341F0EB01019645DABE01AD
:100ED000DF91CF910C94DA1BDF91CF910895CF93DE
:100EE000DF931F921F92CDB7DEB7019669837A8395
:100EF00033DA69817A810F900F90DF91CF910C9452
:100F0000DA1BCF92DF92EF92FF920F931F93CF9352
:100F1000DF93EC016A017901F5D9FE01E85FFD4F2D
:100F2000D182C0823296F182E082C45FDD4F1983A4
:100F30000883DF91CF911F910F91FF90EF90DF9089
:100F4000CF900895CF92DF92EF92FF920F931F936D
:100F5000CF93DF9300D000D0CDB7DEB78C01FC017A
:100F6000E45FFD4F61E080810E94EB21780188EF12
:100F7000E81A8DEFF80A61E0F70180810E94EB2109
:100F800060E0F70180810E942722065F1D4F62E02A
:100F9000F80180810E94EB2168E873E180E090E035
:100FA0000E941421F80180810E945622892B01F5AC
:100FB00061E0F70180810E942722C12CD12CF80129
:100FC00080810E945622892B51F464E670E080E013
:100FD00090E00E941421FFEFCF1ADF0AF0CFF2E376
:100FE000CF16D104E4F460E0F70180810E9427224B
:100FF00064E670E080E090E00E9414216CEA72E008
:10100000CE0101960E94561913DFBE016F5F7F4F1C
:1010100055DFCE0101960E94EB1881E001C080E00F
:1010200026960FB6F894DEBF0FBECDBFDF91CF91ED
:101030001F910F91FF90EF90DF90CF900895CF9385
:10104000DF931F921F92CDB7DEB769837A8384D96D
:1010500069817A810F900F90DF91CF910C94DA1B08
:10106000CF93DF931F921F92CDB7DEB769837A8348
:1010700073D94AE050E069817A810F900F90DF9137
:10108000CF910C94851CCF93DF931F921F92CDB705
:10109000DEB769837A8360D969817A810F900F9076
:1010A000DF91CF910C94B21BCF93DF93EC010896A4
:1010B0000E94EB18CE010296DF91CF910C94EB18B1
:1010C0000F931F93CF93DF938C01EB01FB01819171
:1010D0009191BF01F80181939193CF010E947F19F3
:1010E000BE01685F7F4FC8010896DF91CF911F91C5
:1010F0000F910C947F190F931F93CF93DF931F923F
:101100001F92CDB7DEB78C01CB0169837A8328D9D2
:1011100069817A81882319F0C80107DA05C06CE675
:1011200072E0C8010E945619C8010F900F90DF911C
:10113000CF911F910F910895CF93DF93EC016CE64F
:1011400072E002960E9456196CE672E0CE01089693
:10115000DF91CF910C9456198F929F92AF92BF92CC
:10116000CF92DF92EF92FF920F931F93CF93DF9373
:10117000CDB7DEB768970FB6F894DEBF0FBECDBF10
:101180006C018B01ADB6BEB6D7DF6CE672E0CE0166
:1011900043960E9456196CE672E0CE010D960E94AD
:1011A0005619B801CE010796A6DF6CE672E0CE01B3
:1011B00007960E94731A81117CC08DB69EB64B852E
:1011C0005C858DB79EB7841B950B0FB6F8949EBFB8
:1011D0000FBE8DBFEDB7FEB731967F0120E030E046
:1011E000BF01CE0107960E94B81A0B851C850250DC
:1011F0001109F701E00FF11F80818D3019F40150C2
:101200001109F7CF8A30D9F3F701E00FF11F6081A0
:101210006D30E9F06A30D9F0CE0101960E949C1938
:10122000BE01635F7F4FCE0101960E944B1ABC0145
:10123000CE010D960E946A19CE0101960E94EB180C
:1012400001501109E1CF8A3039F501501109F70138
:10125000E00FF11F80818D30B1F7F7CFF701E00F7C
:10126000F11F60816D30D9F06A30C9F0CE0101966E
:101270000E949C19BE016D5E7F4FCE0101960E94B7
:101280004B1ABC01CE0143960E946A19CE01019609
:101290000E94EB180150110917FFE0CF02C060E275
:1012A000E5CF0FB6F8949EBE0FBE8DBE20E030E0B5
:1012B00002C021E030E0F60121933193CF01BE015D
:1012C0006D5E7F4F0E946A19BE01635F7F4FC6014A
:1012D00008960E946A19CE0107960E94EB18CE016B
:1012E0000D960E94EB18CE0143960E94EB18C601A2
:1012F0000FB6F894BEBE0FBEADBE68960FB6F8949A
:10130000DEBF0FBECDBFDF91CF911F910F91FF9038
:10131000EF90DF90CF90BF90AF909F908F90089507
:10132000EF92FF920F931F93CF93DF9300D000D0E3
:10133000CDB7DEB78C017B016AEB72E0CE0101967E
:101340000E945619BE016F5F7F4FC70178DECE0144
:1013500001960E94EB18B701C801FEDEC80126966F
:101360000FB6F894DEBF0FBECDBFDF91CF911F91B6
:101370000F91FF90EF900895EF92FF920F931F93BC
:10138000CF93DF9300D000D0CDB7DEB78C017B01C7
:101390006FEB72E0CE0101960E945619BE016F5F9D
:1013A0007F4FC7014CDECE0101960E94EB18B701BA
:1013B000C801D2DEC80126960FB6F894DEBF0FBE74
:1013C000CDBFDF91CF911F910F91FF90EF900895C6
:1013D000EF92FF920F931F93CF93DF9300D000D033
:1013E000CDB7DEB78C017B0168EC72E0CE010196CF
:1013F0000E945619BE016F5F7F4FC70120DECE01EC
:1014000001960E94EB18B701C801A6DEC801269616
:101410000FB6F894DEBF0FBECDBFDF91CF911F9105
:101420000F91FF90EF900895EF92FF920F931F930B
:10143000CF93DF9300D000D0CDB7DEB78C017B0116
:1014400061ED72E0CE0101960E945619BE016F5FF8
:101450007F4FC701F4DDCE0101960E94EB18B70162
:10146000C8017ADEC80126960FB6F894DEBF0FBE1B
:10147000CDBFDF91CF911F910F91FF90EF90089515
:10148000EF92FF920F931F93CF93DF9300D000D082
:10149000CDB7DEB78C017B016DED72E0CE01019618
:1014A0000E945619BE016F5F7F4FC701C8DDCE0194
:1014B00001960E94EB18B701C8014EDEC8012696BE
:1014C0000FB6F894DEBF0FBECDBFDF91CF911F9155
:1014D0000F91FF90EF900895EF92FF920F931F935B
:1014E000CF93DF9300D000D0CDB7DEB78C017B0166
:1014F0006AEE72E0CE0101960E945619BE016F5F3E
:101500007F4FC7019CDDCE0101960E94EB18B70109
:10151000C80122DEC80126960FB6F894DEBF0FBEC2
:10152000CDBFDF91CF911F910F91FF90EF90089564
:10153000EF92FF920F931F93CF93DF9300D000D0D1
:10154000CDB7DEB78C017B0164EF72E0CE0101966E
:101550000E945619BE016F5F7F4FC70170DDCE013B
:1015600001960E94EB18B701C801F6DDC801269666
:101570000FB6F894DEBF0FBECDBFDF91CF911F91A4
:101580000F91FF90EF900895EF92FF920F931F93AA
:10159000CF93DF9300D000D0CDB7DEB78C017B01B5
:1015A00060E073E0CE0101960E945619BE016F5FA4
:1015B0007F4FC70144DDCE0101960E94EB18B701B1
:1015C000C801CADDC80126960FB6F894DEBF0FBE6B
:1015D000CDBFDF91CF911F910F91FF90EF900895B4
:1015E0008F929F92AF92BF92CF92DF92EF92FF9233
:1015F0000F931F93CF93DF9300D000D0CDB7DEB70A
:101600006C017B014A01590167E173E0CE0101964B
:101610000E945619BE016F5F7F4FC70134DDCE01B6
:1016200001960E94EB18B401CE0101960E947F1929
:10163000BE016F5F7F4FC70126DDCE0101960E947C
:10164000EB1863E273E0CE0101960E945619BE01C9
:101650006F5F7F4FC70117DDCE0101960E94EB1827
:10166000B501CE0101960E947F19BE016F5F7F4FC9
:10167000C70109DDCE0101960E94EB1867E273E015
:10168000CE0101960E945619BE016F5F7F4FC701C0
:10169000FADCCE0101960E94EB18B801C701E0DC2C
:1016A000B701C60159DDC60126960FB6F894DEBF14
:1016B0000FBECDBFDF91CF911F910F91FF90EF90A3
:1016C000DF90CF90BF90AF909F908F900895CF9272
:1016D000DF92EF92FF920F931F93CF93DF93CDB7DB
:1016E000DEB72C970FB6F894DEBF0FBECDBF7C01DE
:1016F0008B016A016AE273E0CE0101960E945619DD
:10170000BE016F5F7F4FC8019ADCCE0101960E9437
:10171000EB18B801CE010796EEDC6CE672E0CE0164
:1017200007960E94731A811115C0B601CE01019669
:101730000E947F19BE016F5F7F4FC801A4DCCE01FC
:1017400001960E94EB18C8010E94AC0164E373E0AB
:101750000E94C01BB801C701FFDCCE0107960E94A2
:10176000EB18C7012C960FB6F894DEBF0FBECDBFA5
:10177000DF91CF911F910F91FF90EF90DF90CF906D
:101780000895EF92FF920F931F93CF93DF9300D0B2
:1017900000D0CDB7DEB78C017B01BA01CE01019636
:1017A0000E947F19BE016F5F7F4FC70148DCCE01E9
:1017B00001960E94EB18B701C801CEDCC80126963D
:1017C0000FB6F894DEBF0FBECDBFDF91CF911F9152
:1017D0000F91FF90EF900895EF92FF920F931F9358
:1017E000CF93DF9300D000D0CDB7DEB78C017B0163
:1017F00066E373E0CE0101960E945619AE014F5F79
:101800005F4FB701C801BDDFCE0101960E94EB1802
:10181000C80126960FB6F894DEBF0FBECDBFDF918C
:10182000CF911F910F91FF90EF9008950F931F9309
:10183000CF93DF938C01EB01FB0121913191BF012B
:10184000FC0121933193CF010E946A19BE01685FA8
:101850007F4FC80108960E946A19C801DF91CF9195
:101860001F910F9108950F931F93CF93DF93CDB7DF
:10187000DEB72C970FB6F894DEBF0FBECDBF8B013D
:10188000FB0180819181892B89F5BA01CE010196F6
:101890000E947F19B8016E5F7F4FCE0101960E94B2
:1018A0004B1A6BE473E00E945C1AB801685F7F4FCB
:1018B0000E944B1ABC01CE0107960E947F19CE01EF
:1018C00001960E94EB18BE01695F7F4FCE01019621
:1018D0000E947F19ADDABE016F5F7F4FEFDACE0154
:1018E00001960E94EB18CE0107960DC060E573E0EB
:1018F000CE0101960E9456199BDABE016F5F7F4FA1
:10190000DDDACE0101960E94EB182C960FB6F89402
:10191000DEBF0FBECDBFDF91CF911F910F91089514
:10192000CF93DF93EC01C45FDD4F60E088810E94BC
:10193000272268EE73E080E090E00E94142161E0CD
:1019400088810E94272264E670E080E090E0DF91C9
:10195000CF910C9414210F931F93CF93DF93CDB7A6
:10196000DEB7A2970FB6F894DEBF0FBECDBF8C01D5
:10197000CE010F96E1DBC801E5DAB801CE01019690
:10198000CFDCBE016F5F7F4FCE010F964FDFCE01E0
:1019900001968ADB8F859889019779F36EE573E06C
:1019A000CE014D960E945619BE01615F7F4FCE0158
:1019B000019686DBAE01435E5F4FBE016F5F7F4FD6
:1019C000C80151DFCE0101966FDBCE014D960E941A
:1019D000EB18B801CE010196CFDCBE016F5F7F4FDF
:1019E000CE010F9623DFCE0101965EDB8F859889AD
:1019F000019779F36CE673E0CE014D960E9456197B
:101A0000BE01615F7F4FCE0101965ADBAE01435E9E
:101A10005F4FBE016F5F7F4FC80125DFCE0101968A
:101A200043DBCE014D960E94EB18B801CE01019622
:101A3000CFDCBE016F5F7F4FCE010F96F7DECE0188
:101A4000019632DB68E773E0CE014D960E9456198D
:101A5000BE01615F7F4FCE01019632DBAE01435E76
:101A60005F4FBE016F5F7F4FC801FDDECE01019663
:101A70001BDBCE014D960E94EB18B801CE010196FA
:101A8000D3DCBE016F5F7F4FCE010F96CFDECE015C
:101A900001960ADB63E873E0CE014D960E94561969
:101AA000BE01615F7F4FCE0101960ADBAE01435E4E
:101AB0005F4FBE016F5F7F4FC801D5DECE0101963B
:101AC000F3DACE014D960E94EB18B801CE010196D3
:101AD000D7DCBE016F5F7F4FCE010F96A7DECE0130
:101AE0000196E2DA6BE873E0CE014D960E9456193A
:101AF000BE01615F7F4FCE010196E2DAAE01435E27
:101B00005F4FBE016F5F7F4FC801ADDECE01019612
:101B1000CBDACE014D960E94EB18B801CE010196AA
:101B2000DBDCBE016F5F7F4FCE010F967FDECE0103
:101B30000196BADA61E973E0CE014D960E9456191A
:101B4000BE01615F7F4FCE010196BADAAE01435EFE
:101B50005F4FBE016F5F7F4FC80185DECE010196EA
:101B6000A3DACE014D960E94EB18B801CE01019682
:101B7000DFDCBE016F5F7F4FCE010F9657DECE01D7
:101B8000019692DA6EE973E0CE014D960E945619E5
:101B9000BE01615F7F4FCE01019692DAAE01435ED6
:101BA0005F4FBE016F5F7F4FC8015DDECE010196C2
:101BB0007BDACE014D960E94EB18B801CE0101965A
:101BC000E3DCBE016F5F7F4FCE010F962FDECE01AB
:101BD00001966ADA69EA73E0CE014D960E945619C1
:101BE000BE01615F7F4FCE0101966ADAAE01435EAE
:101BF0005F4FBE016F5F7F4FC80135DECE0101969A
:101C000053DACE014D960E94EB1864EB73E0CE01DF
:101C10004D960E945619AE01435E5F4FB801CE014A
:101C20000196AFDDBE016F5F7F4FCE010F96FEDDE7
:101C3000CE01019639DACE014D960E94EB1861EC87
:101C400073E0CE014D960E945619BE01615F7F4F31
:101C5000CE01019635DAAE01435E5F4FBE016F5F84
:101C60007F4FC80100DECE0101961EDACE014D96EF
:101C70000E94EB186BED73E0CE014D960E94561951
:101C8000AE01435E5F4FB801CE0101967ADDBE0121
:101C90006F5F7F4FCE010F96C9DDCE01019604DA4A
:101CA000CE014D960E94EB188F859889019711F30C
:101CB00066EE73E0CE0147960E94731A8111DACF67
:101CC0006CEE73E0CE014D960E945619BE01615F25
:101CD0007F4FCE010196F4D9AE01435E5F4FBE0146
:101CE0006F5F7F4FC801BFDDCE010196DDD9CE0108
:101CF0004D960E94EB1865E074E0CE014D960E946F
:101D00005619AE01435E5F4FB801CE01019639DD31
:101D1000BE016F5F7F4FCE010F9688DDCE01019629
:101D2000C3D9CE014D960E94EB1863E174E0CE0159
:101D30004D960E945619BE01615F7F4FCE010196FC
:101D4000BFD9AE01435E5F4FBE016F5F7F4FC801D9
:101D50008ADDCE010196A8D9CE014D960E94EB18DE
:101D600069E274E0CE014D960E945619AE01435EC1
:101D70005F4FB801CE01019604DDBE016F5F7F4F5A
:101D8000CE010F9653DDCE0101968ED9CE014D9630
:101D90000E94EB1865E374E0CE014D960E9456193F
:101DA000BE01615F7F4FCE0101968AD9AE01435ECD
:101DB0005F4FBE016F5F7F4FC80155DDCE010196B9
:101DC00073D9CE014D960E94EB1863E474E0CE0106
:101DD0004D960E945619AE01435E5F4FB801CE0189
:101DE0000196CFDCBE016F5F7F4FCE010F961EDDE7
:101DF000CE01019659D9CE014D960E94EB1861E5AE
:101E000074E0CE014D960E945619BE01615F7F4F6E
:101E1000CE01019655D9AE01435E5F4FBE016F5FA3
:101E20007F4FC80120DDCE0101963ED9CE014D96EF
:101E30000E94EB18C80174DDCE010F9635D9A29629
:101E40000FB6F894DEBF0FBECDBFDF91CF911F91CB
:101E50000F9108957F928F929F92AF92BF92CF92EF
:101E6000DF92EF92FF920F931F93CF93DF93CDB743
:101E7000DEB7AA970FB6F894DEBF0FBECDBF7C01C8
:101E80008A016CE672E00E94561957018CE0A80E98
:101E9000B11C6CE672E0C5010E9456196701E2E1CF
:101EA000CE0ED11C6CE672E0C6010E945619B80134
:101EB000CE0185960E947F196CE672E0CE014F96A6
:101EC0000E9456196CE672E0CE0149960E9456199E
:101ED0006CE672E0CE0143960E9456196CE672E001
:101EE000CE010D960E9456196CE672E0CE0107965F
:101EF0000E94561961E674E0CE0101960E945619BF
:101F0000BE016F5F7F4FCE0185960E94231B8C011F
:101F1000CE0101960E94EB18101611060CF0CEC0EF
:101F20009801275E3F4FA801465F5F4FBE016B5D82
:101F30007F4FCE0101960E94261BBE016F5F7F4F2F
:101F4000CE014F960E946A19CE0101960E94EB18AD
:101F5000065E1F4FA8016AE0CE0185960E94E71A2F
:101F60009C01A801BE016B5D7F4FCE0101960E94CE
:101F7000261BBE016F5F7F4FCE0149960E946A19F2
:101F8000CE0101960E94EB186CE674E0CE0101963A
:101F90000E945619BE016F5F7F4FCE0185960E9449
:101FA000231B4C01CE0101960E94EB18F3E08F0E2B
:101FB000911C6CEE74E0CE0101960E945619A401AA
:101FC000BE016F5F7F4FCE0185960E94061B8C017C
:101FD000CE0101960E94EB1817FF1EC060E774E067
:101FE000CE0101960E945619A401BE016F5F7F4F7A
:101FF000CE0185960E94061B8C01CE0101960E949F
:10200000EB1817FF09C0A4016AE3CE0185960E9470
:10201000E71A8C01712C02C0772473949801A401F3
:10202000BE016B5D7F4FCE0101960E94261BBE0153
:102030006F5F7F4FCE0143960E946A19CE010196D1
:102040000E94EB187720F1F098012D5F3F4FA80117
:10205000BE016B5D7F4FCE0101960E94261BBE0123
:102060006F5F7F4FCE010D960E946A19CE010196D7
:102070000E94EB18CE0143960E946A1BA8014C5F98
:102080005F4F07C0CE0143960E946A1BA8014F5FB5
:102090005F4F9A01260F371FBE016B5D7F4FCE0148
:1020A00001960E94261BBE016F5F7F4FCE010796EF
:1020B0000E946A19CE0101960E94EB18BE01615E72
:1020C0007F4FC7010E946A19CE0149960E946A1B80
:1020D000F7016683778380879187CE0143960E94BC
:1020E0006A1BF70173876287BE01635F7F4FC5017B
:1020F0000E946A19BE01695F7F4FC6010E946A197A
:10210000CE0107960E94EB18CE010D960E94EB18A7
:10211000CE0143960E94EB18CE0149960E94EB181F
:10212000CE014F960E94EB18CE0185960E94EB18C7
:10213000C701AA960FB6F894DEBF0FBECDBFDF91E0
:10214000CF911F910F91FF90EF90DF90CF90BF90B4
:10215000AF909F908F907F9008952F923F924F92D3
:102160005F926F927F928F929F92AF92BF92CF9227
:10217000DF92EF92FF920F931F93CF93DF9300D0E4
:1021800000D0CDB7DEB77C018A016CE672E00E9418
:102190005619470186E0880E911C6CE672E0C40176
:1021A0000E94561937018CE0680E711C6CE672E0D3
:1021B000C3010E945619270182E1480E511C6CE6AA
:1021C00072E0C2010E945619170188E1280E311CE5
:1021D0006CE672E0C1010E94561964E774E0CE011A
:1021E00001960E945619BE016F5F7F4FC8010E9481
:1021F000231B6C01CE010196EED76CE2C8010E9450
:10220000031B5C01A601495F5F4F9C01B801CE0131
:1022100001960E94261BBE016F5F7F4FC7010E947F
:102220006A19CE010196D7D7A5014F5F5F4F6CE2C7
:10223000C8010E94E71A6C019C0121503109A501D7
:102240004E5F5F4FB801CE0101960E94261BBE0172
:102250006F5F7F4FC4010E946A19CE010196BBD700
:10226000A6014F5F5F4F6CE2C8010E94E71A5C0154
:102270009C0121503109A6014E5F5F4FB801CE018C
:1022800001960E94261BBE016F5F7F4FC3010E9413
:102290006A19CE0101969FD7A5014F5F5F4F6CE28F
:1022A000C8010E94E71A02965C01AC0162E2C80113
:1022B0000E94E71A6C019C01A501B801CE010196AC
:1022C0000E94261BBE016F5F7F4FC2010E946A19E8
:1022D000CE01019680D783E0C80ED11CA6016AE02A
:1022E000C8010E94E71A9C01A601B801CE0101961F
:1022F0000E94261BBE016F5F7F4FC101EBD7CE014D
:10230000019669D7C70126960FB6F894DEBF0FBEB7
:10231000CDBFDF91CF911F910F91FF90EF90DF9094
:10232000CF90BF90AF909F908F907F906F905F9075
:102330004F903F902F9008952F923F924F925F922F
:102340006F927F928F929F92AF92BF92CF92DF92C5
:10235000EF92FF920F931F93CF93DF93CDB7DEB72A
:10236000CF54D1090FB6F894DEBF0FBECDBF3C01EC
:1023700060967FAF6EAF60976CE774E08E010F5F81
:102380001F4FC80193D7B801C3010E941F08C8019D
:1023900022D75E0183E4A80EB11CB301C5010E94DF
:1023A0007B082E019DE3490E511C6CE672E0C201D0
:1023B0007DD76CE672E0C5010E94731A8111C0C01E
:1023C0006096EEADFFAD60972C96FFAFEEAF2C9709
:1023D000812C912C212C312C680164E774E0C6011A
:1023E00065D7A401B601C5010E94061B8C01C60178
:1023F000F2D664E774E0C60159D7A801495F5F4F80
:10240000B601C5010E94061B4C01C601E4D697FE29
:1024100011C0F50124813581A801B501C6010E94D2
:10242000261BB601C20156D7C601D5D62A961FAEC5
:102430002A970FC09401A801B501C6010E94261B6E
:10244000B601C20147D7C601C6D6F1E02A96FFAF52
:102450002A97B201CE014F9652D7AE01415E5F4F2F
:10246000B301C6017ADECE014F96B5D6B601CE01D4
:10247000C79645D7BE01695F7F4FCE01C1963FD752
:10248000BE01635F7F4FCE018B9639D7BE016D5E73
:102490007F4FCE01859633D7BE01675E7F4FCE0159
:1024A0004F962DD78EE190E00E949B1C2E969FAFF9
:1024B0008EAF2E97CE014F967C018E010B5D1F4F84
:1024C0009E01255D3F4FAE014F5C5F4FBE01695CD1
:1024D0007F4F2E968EAD9FAD2E9736D29FEF291A45
:1024E000390A2C96EEADFFAD2C972E968EAD9FAD92
:1024F0002E97819391932C96FFAFEEAF2C97C70147
:102500006AD6C80168D6CE018B9665D6CE01C19633
:1025100062D6CE01C7965FD6CE0149965CD6CE0173
:10252000439659D6CE010D9656D6CE01079653D670
:10253000C60151D62A969FAD2A9791114ECF02C05F
:10254000212C312CF101EE0FFF1F60968EAD9FAD57
:102550006097E80FF91F11821082CE01CD963BD60D
:10256000CE018D5B9F4F37D6C15BDF4F0FB6F8941E
:10257000DEBF0FBECDBFDF91CF911F910F91FF90B6
:10258000EF90DF90CF90BF90AF909F908F907F9013
:102590006F905F904F903F902F9008950F931F93EF
:1025A000CF93DF93EC010E94E3206C837D838E83C5
:1025B0009F830091760510917705209178053091E1
:1025C00079056017710782079307A0F400917A05D7
:1025D00010917B0520917C0530917D050F5F1F4F89
:1025E0002F4F3F4F00937A0510937B0520937C0576
:1025F00030937D0560937605709377058093780519
:102600009093790580917A0590917B05A0917C0546
:10261000B0917D0588839983AA83BB83DF91CF9195
:102620001F910F910895FC01108211821282138272
:1026300044835583668377830895CF92DF92EF9228
:10264000FF920F931F93CF93DF93CDB7DEB76097C1
:102650000FB6F894DEBF0FBECDBF29873A874B87F0
:102660005C876D877E878F87988BF80189859A852F
:10267000AB85BC854D855E856F857889C480D580A6
:10268000E680F7808A019B010C191D092E093F097C
:1026900068017901401751076207730718F4019721
:1026A000A109B1094081518162817381841B950B1D
:1026B000A60BB70B89839A83AB83BC83CD82DE8262
:1026C000EF82F886282F3A814B815C816C2D7E81C8
:1026D0008F81988560960FB6F894DEBF0FBECDBF90
:1026E000DF91CF911F910F91FF90EF90DF90CF90EE
:1026F00008950F931F93CF93DF93CDB7DEB728973D
:102700000FB6F894DEBF0FBECDBF29833A834B834B
:102710005C836D837E838F839887F80109811A819A
:102720002B813C81408151816281738181E004175A
:1027300015072607370741F40D811E812F81388543
:10274000448155816681778140175107620773077D
:1027500008F080E028960FB6F894DEBF0FBECDBF1C
:10276000DF91CF911F910F9108950F931F93CF93F6
:10277000DF93CDB7DEB728970FB6F894DEBF0FBE54
:10278000CDBF29833A834B835C836D837E838F83A4
:102790009887F80109811A812B813C814081518100
:1027A0006281738181E0041715072607370741F41A
:1027B0000D811E812F813885448155816681778105
:1027C000041715072607370708F480E028960FB688
:1027D000F894DEBF0FBECDBFDF91CF911F910F9157
:1027E0000895EF92FF920F931F93CF93DF93CDB78E
:1027F000DEB728970FB6F894DEBF0FBECDBF298392
:102800003A834B835C836D837E838F839887898132
:102810009A81AB81BC81892B8A2B8B2B51F481E06F
:102820004D815E816F8178854E155F056007710768
:1028300008F080E028960FB6F894DEBF0FBECDBF3B
:10284000DF91CF911F910F91FF90EF900895EF923C
:10285000FF920F931F93CF93DF93CDB7DEB7AE9761
:102860000FB6F894DEBF0FBECDBFBE016F5F7F4FC6
:10287000FC018685978560DD8E010F5F1F4FF80193
:10288000608171816115710509F43BC0685E7F4FFD
:10289000CE01899634D56CE672E0CE01899623D6B6
:1028A000F82ECE01899697D4F11012C0F8016081FC
:1028B0007181685E7F4FCE01899621D50E941807ED
:1028C000BE01675D7F4F0E946F07CE01899683D45A
:1028D000F801E190F1908F01E114F10481F2C70158
:1028E000489679D4C701429676D4C7010C9673D422
:1028F000C701069670D4C7016ED4C7010E949C1C04
:10290000BECFAE960FB6F894DEBF0FBECDBFDF913F
:10291000CF911F910F91FF90EF9008950F931F9308
:10292000CF93DF93EC018B0140E157E260E070E070
:1029300089D285E994E0998388831F870E87DF9188
:10294000CF911F910F9108952F923F924F925F92D6
:102950006F927F928F929F92AF92BF92CF92DF92AF
:10296000EF92FF920F931F93CF93DF9300D01F92AC
:10297000CDB7DEB79C838B836B015A012901180107
:1029800097016CE672E0E9823A8390D46B807C8098
:1029900086E0680E711C6CE672E0C30187D48B8000
:1029A0009C808CE0880E911C6CE672E0C4017ED4A1
:1029B000EB80FC8082E1E80EF11C6CE672E0C7015E
:1029C00075D40B811C81085E1F4F6CE672E0C80154
:1029D0006DD4B6018B819C817DD4B501C3017AD4BD
:1029E000B201C40177D4B101C70174D429813A81FD
:1029F000B901C8010F900F900F900F90DF91CF9108
:102A00001F910F91FF90EF90DF90CF90BF90AF900C
:102A10009F908F907F906F905F904F903F902F90FE
:102A200059C40F931F93CF93DF93EC018B01BA012D
:102A3000A90108D286E595E0998388831F870E87D0
:102A4000DF91CF911F910F9108955F926F927F92C6
:102A50008F929F92AF92BF92CF92DF92EF92FF92AE
:102A60000F931F93CF93DF93CDB7DEB7C254D10935
:102A70000FB6F894DEBF0FBECDBF7C016B014901DC
:102A80005A01CE01C5968ADD8E01035D1F4FC80134
:102A900085DD60E08CE00E9427226CE672E0CE01CA
:102AA000419604D46CE672E0CE014796FFD398E0DD
:102AB000792E602E512E67E974E0CE014D96F6D343
:102AC000F70166857785AE01435E5F4FCE010196C3
:102AD0000E94C10BBE016F5F7F4FCE010F960E9417
:102AE000160CCE0101960E945408CE014D9673D368
:102AF00061EA74E0CE014D96D9D3BE01615F7F4F8C
:102B0000CE0101960E946008AE01435E5F4FBE0198
:102B10006F5F7F4FF701868597850E94330CCE014A
:102B200001960E945408CE014D9655D36EEA74E08A
:102B3000CE014796D8D4811166C060EC74E0CE0116
:102B40004D96B4D36CEE74E0CE01CD96AFD3F701C1
:102B50006685778508E213E29E01235E3F4FAE0152
:102B6000435C5F4FCE0101960E94F00ABE016F5F89
:102B70007F4FCE010F960E94160CCE0101960E9447
:102B80005408CE01CD9627D3CE014D9624D360EDC7
:102B900074E0CE0101968AD30E941807BE016F5FD0
:102BA0007F4F0E945E07CE01019615D3CE0101969C
:102BB000F5DCFE013196A62DB52D872D01900D92E5
:102BC0008A95E1F7B501A401CE0101962CDD8E01B5
:102BD0000B5C1F4F2DA53EA54FA558A969A97AA941
:102BE0008BA99CA92ADD2DA33EA34FA358A769A7B3
:102BF0007AA78BA79CA704531109B7DD882319F086
:102C000060EF74E099C063E075E0CE0147966BD445
:102C1000811151CF60E175E0CE014D9647D3BE01E1
:102C2000615F7F4FCE0101960E946008AE01435E56
:102C30005F4FBE016F5F7F4FF701868597850E94CA
:102C4000330CCE0101960E945408CE014D96C3D29A
:102C5000CE010196A3DC88E0FE013196DE01D59617
:102C600001900D928A95E1F788E0782EB601CE01A9
:102C7000CD9645D3F70166857785AE01435C5F4FFE
:102C8000CE0101960E94670BBE016F5F7F4FCE01A0
:102C90000F960E94160CCE0101960E945408CE0198
:102CA000CD9699D262E275E0CE01CD96FFD2BE01FB
:102CB000615F7F4FCE0101960E946008AE01435CC8
:102CC0005F4FBE016F5F7F4FF701868597850E943A
:102CD000330CCE0101960E945408CE01CD967BD2D2
:102CE000CE0101965BDCFE013196DE019D96872DBB
:102CF00001900D928A95E1F7B501A401CE010196EC
:102D000092DC8E010B5C1F4F2DA53EA54FA558A947
:102D100069A97AA98BA99CA990DC2D8F3E8F4F8F32
:102D200058A369A37AA38BA39CA3045311091DDDA7
:102D3000882371F06EE275E0C801B8D20E941807CE
:102D4000B8010E945E07C80146D2CE010F960EC0A0
:102D50006BE375E0CE014796C6D3882309F486CF8E
:102D600061E08CE00E942722CE010F960E94540859
:102D7000CE5BDF4F0FB6F894DEBF0FBECDBFDF9145
:102D8000CF911F910F91FF90EF90DF90CF90BF9068
:102D9000AF909F908F907F906F905F9008950F936A
:102DA0001F93CF93DF93CDB7DEB7A2970FB6F894FA
:102DB000DEBF0FBECDBF8C01FC0166857785CE01DD
:102DC0000F960E94EC0B63E475E0CE014D966ED237
:102DD000BE01615F7F4FCE0101960E946008AE0187
:102DE000435E5F4FBE016F5F7F4FF8018685978519
:102DF0000E94330CCE0101960E945408CE014D96DC
:102E0000EAD1BE016F5E7F4FCE01019678D228E8ED
:102E100033E140E050E0BE016F5F7F4FC80115DE37
:102E2000CE010196D8D1CE010F960E945408A296E9
:102E30000FB6F894DEBF0FBECDBFDF91CF911F91CB
:102E40000F910895EF92FF920F931F93CF93DF930B
:102E5000CDB7DEB72C970FB6F894DEBF0FBECDBF4F
:102E60008C018CE595E0F801918380837801F6E090
:102E7000EF0EF11CC70149875A876B877C878EDB71
:102E8000CE0101968BDB98E0FE013196D7010190CF
:102E90000D929A95E1F749855A856B857C85F801F5
:102EA00042835383648375832C960FB6F894DEBFF8
:102EB0000FBECDBFDF91CF911F910F91FF90EF908B
:102EC0000895CF92DF92EF92FF920F931F93CF93CB
:102ED000DF93CDB7DEB768970FB6F894DEBF0FBEAD
:102EE000CDBF7C01CE01419659DBD70112964D91A1
:102EF0005D916D917C911597CE01099694DB6701E8
:102F0000B6E0CB0ED11C860129893A894B895C89B0
:102F10006D897E898F89988D90DB29833A834B83D5
:102F20005C836D837E838F8398878E01075F1F4F3D
:102F30001CDC882389F0C80131DB88E0F801D60168
:102F400001900D928A95E1F7D701ED91FC910190E6
:102F5000F081E02DC701199568960FB6F894DEBF91
:102F60000FBECDBFDF91CF911F910F91FF90EF90DA
:102F7000DF90CF900895DF92EF92FF920F931F930F
:102F8000CF93DF93CDB7DEB7C054D1090FB6F89415
:102F9000DEBF0FBECDBFCE018D9600DB8E010B5D77
:102FA0001F4FC801FBDA6CE672E0CE0141967ED17C
:102FB0006CE672E0CE01479679D188E0F82EE02EDB
:102FC000D12E60EC74E0CE01C59670D16CEE74E049
:102FD000CE01CB966BD1609146067091470608E210
:102FE00013E29E012B5C3F4FAE01455C5F4FCE016B
:102FF00001960E94F00A89819A81988B8F87BE0181
:103000006D5F7F4FCE01419665D1BE01675F7F4FF7
:10301000CE0147965FD1CE010996DDD0CE01039651
:10302000DAD0CE01CB96D7D0CE01C596D4D060ED04
:1030300074E0CE0101963AD10E941807BE016F5F7D
:103040007F4F0E946F07CE010196C5D0CE01019639
:10305000A5DAFE013196AE2DBD2D8F2D01900D927A
:103060008A95E1F740E157E260E070E0CE01019619
:10307000DADA8E01035D1F4F2DA13EA14FA158A5A5
:1030800069A57AA58BA59CA5D8DA2D8F3E8F4F8F89
:1030900058A369A37AA38BA39CA30C52110965DBE7
:1030A000882361F060EF74E0C80100D10E94180726
:1030B000B8010E946F07C8018ED007C063E075E0B9
:1030C000CE01479610D281117CCFCE01479683D096
:1030D000CE01419680D0C05CDF4F0FB6F894DEBFC2
:1030E0000FBECDBFDF91CF911F910F91FF90EF9059
:1030F000DF9008950F931F93CF93DF930E941807DB
:1031000040E855E26EEA76E00E9436070E94180712
:1031100021E0FC0120838EE092E00DD4EC0108E078
:1031200010E026E030E047E050E06CE876E00E94F6
:103130008107D0934706C0934606CE010E94AB0C90
:103140001ADF61E08CE00E94EB2161E08CE00E94DC
:1031500027220E941807FC01108288E192E0EBD33D
:103160008C0160914606709147064EEA56E00E9437
:10317000AE02CEE7D5E01983088380E190E0DBD38F
:103180008C01609146067091470620E137E240E0ED
:1031900050E047DC1B830A8380E190E0CCD38C01B4
:1031A0006091460670914706B9DB1D830C831F8230
:1031B0001E82DF91CF911F910F910895CF93DF93DE
:1031C000CEE7D5E089919991009711F07ADEFACF98
:1031D000DF91CF910895FC01808191810C944A2464
:1031E000CF93DF93EC0188819981009711F00E94C1
:1031F0004A24198218821D821C821B821A82DF9146
:10320000CF9108950F931F93CF93DF93EC018B0120
:103210006F5F7F4F888199810E94E224009731F08F
:10322000998388831B830A8381E001C080E0DF915A
:10323000CF911F910F910895CF93DF93EC01888177
:103240009981892B29F08A819B818617970758F4E9
:10325000CE01D8DF882341F08C819D81892B19F420
:10326000E881F981108281E0DF91CF910895EF929A
:10327000FF920F931F93CF93DF93EC017B018A01A1
:10328000BA01DADF811103C0CE01AADF07C01D83B6
:103290000C83B701888199810E940926CE01DF91B4
:1032A000CF911F910F91FF90EF900895FC01118233
:1032B000108213821282158214826115710549F001
:1032C000FB0101900020E9F73197AF01461B570B36
:1032D000CECF0895CF93DF93EC01FB0186179707BC
:1032E00051F0608171816115710521F04481558132
:1032F000BEDF01C075DFCE01DF91CF910895FC01E3
:10330000118210821382128215821482E3CFCF932E
:10331000DF93EC016115710551F0FB010190002074
:10332000E9F73197AF01461B570BA1DF01C058DF0A
:10333000CE01DF91CF910895CF93DF931F921F921B
:10334000CDB7DEB7FC011182108213821282158282
:10335000148269831A82BE016F5F7F4FD8DF0F909E
:103360000F90DF91CF9108950F931F93CF93DF9329
:10337000CDB7DEB762970FB6F894DEBF0FBECDBFF4
:103380008C01CB01F8011182108213821282158206
:10339000148250E0BE016F5F7F4F0E944726BE013E
:1033A0006F5F7F4FC801B3DF62960FB6F894DEBF40
:1033B0000FBECDBFDF91CF911F910F9108950F9355
:1033C0001F93CF93DF93CDB7DEB7A2970FB6F894D4
:1033D000DEBF0FBECDBF8C01CB01BA01F801118257
:1033E0001082138212821582148230E0AE014F5F88
:1033F0005F4F0E946626BE016F5F7F4FC80187DF67
:10340000A2960FB6F894DEBF0FBECDBFDF91CF916D
:103410001F910F910895EF92FF920F931F93CF93F7
:10342000DF93FC01248135816115710511F480E081
:1034300018C041155105A1F07B01EC018A01020F72
:10344000131FB801F9DE882391F3288139818C811B
:103450009D81B701820F931F0E9409261D830C8353
:1034600081E0DF91CF911F910F91FF90EF90089530
:10347000CF93DF931F921F92CDB7DEB769831A8275
:1034800041E050E0BE016F5F7F4FC5DF0F900F90AE
:10349000DF91CF910895CF93DF93EC01FB0144813D
:1034A000558160817181B7DF811102C0CE0198DE44
:1034B000CE01DF91CF910895CF93DF93EC01611599
:1034C000710559F0FB0101900020E9F73197AF0138
:1034D000461B570BA0DF811102C0CE0181DECE0159
:1034E000DF91CF910895FC0124813581232B31F4A4
:1034F00021E061157105A1F0FB0108C0FC0180818C
:1035000091816115710531F421E0FC0180818823EE
:1035100039F005C00E94002621E0892B09F020E047
:10352000822F0895DB011496ED91FC911597DC0133
:1035300014962D913C9115972E1B3F0B24173507A0
:10354000A0F02D913C912115310579F0DB016D91B1
:103550007C916115710549F0CA01AF01820F931F7B
:103560000E94102621E0892B09F020E0822F089587
:103570000F931F93CF93DF934115510519F16115F7
:10358000710501F1DC011496ED91FC9115972E1750
:103590003F0718F0FB01108215C0E21BF30BEA0194
:1035A0002197EC17FD0708F4EF018B01FC01608106
:1035B0007181620F731FAE01C8010E941E26C00FE9
:1035C000D11F1882DF91CF911F910F910895CF9352
:1035D000DF93FC01248135814217530778F4C081C1
:1035E000D181772767FD7095CE01840F951F0E94CA
:1035F000F525009719F08C1B9D0B02C08FEF9FEFF4
:10360000DF91CF91089540E050E0E1CFCF93DF9379
:10361000FC01248135814217530780F4FB01DC0152
:10362000CD91DC9160817181CE01840F951F0E9444
:103630002D26009719F08C1B9D0B02C08FEF9FEF7A
:10364000DF91CF91089540E050E0E0CFBF92CF925C
:10365000DF92EF92FF920F931F93CF93DF937C0142
:103660006B018A01E9012417350720F4812F8901B4
:10367000C42FD82F6CE672E0C70118DED60114966D
:103680008D919C91159780179107C8F08C179D0715
:1036900008F4EC01D601ED91FC911197EC0FFD1FA0
:1036A000B08010824D915C91BA01600F711FC7010B
:1036B0002EDED601ED91FC91EC0FFD1FB082C7010B
:1036C000DF91CF911F910F91FF90EF90DF90CF90FE
:1036D000BF900895FC0180819181009711F00C94B6
:1036E000C62560E070E0CB010895CF92DF92EF92A3
:1036F000FF920F931F93CF93DF936C01EB017B013C
:10370000E40EF51E00E010E0CE15DF0561F06991D2
:10371000D601ED91FC910190F081E02DC601199543
:10372000080F191FF1CFC801DF91CF911F910F91A1
:10373000FF90EF90DF90CF9008956115710579F0BB
:10374000FB0101900020E9F73197AF01461B570BB1
:10375000DC01ED91FC910280F381E02D199480E071
:1037600090E00895DC01ED91FC91DB0114964D9100
:103770005C9115976D917C910280F381E02D1994F5
:10378000DCCFDC01ED91FC910190F081E02D1994EA
:103790000F931F93CF93DF93EC016DE0F2DF8C0169
:1037A0006AE0CE01EEDF800F911FDF91CF911F9174
:1037B0000F9108950F931F93CF93DF93EC01D2DF06
:1037C0008C01CE01E5DF800F911FDF91CF911F911A
:1037D0000F9108958F929F92AF92BF92CF92DF92F6
:1037E000EF92FF920F931F93CF93DF93CDB7DEB786
:1037F000A1970FB6F894DEBF0FBECDBF6C01142F9A
:10380000E52FCB01022F19A2223008F40AE07E0135
:1038100021E2E20EF11C802E912CA12CB12C612F03
:103820007E2FA501940163D7029F1019112481E016
:10383000E81AF1081A3014F4105D01C0195CF701A0
:103840001083122FE32FCA01232B242B252B39F7AA
:10385000B701C60172DFA1960FB6F894DEBF0FBEA6
:10386000CDBFDF91CF911F910F91FF90EF90DF902F
:10387000CF90BF90AF909F908F900895CF92DF929E
:10388000EF92FF920F931F93CF93DF93EC016A01A6
:103890007B012115310579F4E881F9810190F081EE
:1038A000E02D642FDF91CF911F910F91FF90EF904A
:1038B000DF90CF9019942A303105D9F477FF18C0E2
:1038C0006DE25FDF8C0144275527BA014C195D0971
:1038D0006E097F092AE0CE017DDF800F911FDF9105
:1038E000CF911F910F91FF90EF90DF90CF900895AF
:1038F0002AE0B701A601CE01DF91CF911F910F9170
:10390000FF90EF90DF90CF9065CF0F931F93CF93F1
:10391000DF93EC019A01AB01662757FD6095762F86
:10392000ADDF8C01CE0134DF800F911FDF91CF918D
:103930001F910F91089519C7ADC70895089598D4A0
:10394000FDDFD8DBCAE2DEE139DC2097E9F382D182
:10395000FBCFFC0124853585F901E05CFF4F8081B8
:103960009181329620813181805C9F4F821B930B25
:1039700060E470E0A9C6DC011C96ED91FC911D97F6
:10398000DF01A05CBF4F2D913C91119712968D9154
:103990009C9111972817390739F08D919C91E80F68
:1039A000F91F808190E008958FEF9FEF0895FC014B
:1039B000A485B585FD01E05CFF4F20813181329601
:1039C000808191812817390779F080819181A80F32
:1039D000B91F8C91208131812F5F3F4F2F73332787
:1039E0003183208390E008958FEF9FEF0895FC01CD
:1039F00081A1882329F0A489B5898C9186FFFBCF0A
:103A000011A208950F931F93CF93DF93FC01A68516
:103A1000B7858D01005C1F4FE8018881998101966F
:103A20008F739927AD014E5B5F4FEA012881398181
:103A300082179307D1F3E80128813981A20FB31FC0
:103A40006C93A685B785A05CBF4F11969C938E930F
:103A5000A689B7892C9181E090E0078C02C0880F7D
:103A6000991F0A94E2F7822B8C9381E081A304884A
:103A7000F589E02D80818064808381E090E0DF9192
:103A8000CF911F910F910895FB01E05CFF4F2081C2
:103A900031812F5F3F4F2F733327DB01AE5BBF4F69
:103AA0004D915C912417350741F040815181DB0134
:103AB000A40FB51F8C9331832083089508951F921E
:103AC0000F920FB60F9211240BB60F922F933F93C4
:103AD0004F935F936F937F938F939F93AF93BF9316
:103AE000EF93FF938091C00082FD06C08091C600D5
:103AF0006CEA78E0C9DF02C08091C600FF91EF91C7
:103B0000BF91AF919F918F917F916F915F914F91F5
:103B10003F912F910F900BBE0F900FBE0F901F90F3
:103B2000189508951F920F920FB60F9211240BB69D
:103B30000F922F933F934F935F936F937F938F9346
:103B40009F93AF93BF93EF93FF938091C80082FD43
:103B500006C08091CE0064E278E096DF02C08091DA
:103B6000CE00FF91EF91BF91AF919F918F917F9187
:103B70006F915F914F913F912F910F900BBE0F90DE
:103B80000FBE0F901F90189508951F920F920FB6B9
:103B90000F9211240BB60F922F933F934F935F9385
:103BA0006F937F938F939F93AF93BF93EF93FF9305
:103BB0008091D00082FD06C08091D6006CE977E04C
:103BC00063DF02C08091D600FF91EF91BF91AF916A
:103BD0009F918F917F916F915F914F913F912F9125
:103BE0000F900BBE0F900FBE0F901F901895089569
:103BF0001F920F920FB60F9211240BB60F922F93B4
:103C00003F934F935F936F937F938F939F93AF9364
:103C1000BF93EF93FF938091300182FD06C08091A6
:103C2000360164E177E030DF02C080913601FF9118
:103C3000EF91BF91AF919F918F917F916F915F9124
:103C40004F913F912F910F900BBE0F900FBE0F9091
:103C50001F9018958EEA96E07CDE892B09F02EDF06
:103C60008CE896E076DE892B09F05BDF8AE696E049
:103C700070DE892B09F088DF88E496E06ADE892B04
:103C800009F0B5CF08951F920F920FB60F9211242D
:103C90000BB60F922F933F938F939F93EF93FF93C6
:103CA0002091A8083091A9088091AA089091AB08AA
:103CB0002817390731F48091C1008F7D8093C100AE
:103CC00014C0E091AA08F091AB08E859F74F2081A1
:103CD0008091AA089091AB0801968F7399279093D1
:103CE000AB088093AA082093C600FF91EF919F91A3
:103CF0008F913F912F910F900BBE0F900FBE0F90A1
:103D00001F9018951F920F920FB60F9211240BB6A9
:103D10000F922F933F938F939F93EF93FF93209155
:103D200020083091210880912208909123082817BB
:103D3000390731F48091C9008F7D8093C90014C088
:103D4000E0912208F0912308E052F84F2081809101
:103D500022089091230801968F7399279093230846
:103D6000809322082093CE00FF91EF919F918F9135
:103D70003F912F910F900BBE0F900FBE0F901F9091
:103D800018951F920F920FB60F9211240BB60F9237
:103D90002F933F938F939F93EF93FF9320919807D7
:103DA0003091990780919A0790919B0728173907BE
:103DB00031F48091D1008F7D8093D10014C0E091C7
:103DC0009A07F0919B07E85AF84F208180919A0753
:103DD00090919B0701968F73992790939B078093EF
:103DE0009A072093D600FF91EF919F918F913F9179
:103DF0002F910F900BBE0F900FBE0F901F90189534
:103E00001F920F920FB60F9211240BB60F922F93A1
:103E10003F938F939F93EF93FF93209110073091DF
:103E2000110780911207909113072817390731F471
:103E3000809131018F7D8093310114C0E091120790
:103E4000F0911307E053F94F208180911207909170
:103E5000130701968F739927909313078093120786
:103E600020933601FF91EF919F918F913F912F9178
:103E70000F900BBE0F900FBE0F901F901895CF9212
:103E8000DF92EF92FF920F931F93CF93DF93EC019A
:103E90006A017B01411581EE58076105710509F141
:103EA000EC89FD8981E090E008A002C0880F991F8D
:103EB0000A94E2F7808360E079E08DE390E0A70167
:103EC000960115D489019A0101501109210931097E
:103ED00036952795179507959801011580E11807E4
:103EE000A0F0EC89FD89108260E874E88EE190E032
:103EF000A7019601FCD3DA01C9010197A109B10913
:103F0000B695A795979587959C01E889F98930839F
:103F1000EA89FB89208319A2EE89FF89408181E02B
:103F200090E09C010C8C02C0220F331F0A94E2F730
:103F3000242B2083EE89FF8940819C010D8C02C0D7
:103F4000220F331F0A94E2F7242B2083EE89FF8986
:103F500040819C010E8C02C0220F331F0A94E2F7AD
:103F6000242B2083EE89FF8920810F8C02C0880FCB
:103F7000991F0A94E2F7809582238083DF91CF9185
:103F80001F910F91FF90EF90DF90CF900895CF9207
:103F9000DF92EF92FF92EEEAF6E01382128288EE51
:103FA000C82E83E0D82EE12CF12CC482D582E68283
:103FB000F78262E675E0718360838CEA98E095870A
:103FC000848788E698E09787868785EC90E0918BD8
:103FD000808B84EC90E0938B828B80EC90E0958BCF
:103FE000848B81EC90E0978B868B82EC90E0918FB4
:103FF000808F86EC90E0938F828F44E0448F33E093
:10400000358F27E0268F95E0978F81E080A3ECE83D
:10401000F6E013821282C482D582E682F78271832F
:104020006083A4E2B8E0B587A487A0EEB7E0B787C5
:10403000A687ADECB0E0B18BA08BACECB0E0B38B5D
:10404000A28BA8ECB0E0B58BA48BA9ECB0E0B78B49
:10405000A68BAAECB0E0B18FA08FAEECB0E0B38F2E
:10406000A28F448F358F268F978F80A3EAE6F6E0E4
:1040700013821282C482D582E682F78271836083C2
:10408000ACE9B7E0B587A487A8E5B7E0B787A6870E
:10409000A5EDB0E0B18BA08BA4EDB0E0B38BA28B0B
:1040A000A0EDB0E0B58BA48BA1EDB0E0B78BA68BF3
:1040B000A2EDB0E0B18FA08FA6EDB0E0B38FA28FDC
:1040C000448F358F268F978F80A3E8E4F6E0138224
:1040D0001282C482D582E682F7827183608364E1B2
:1040E00077E07587648760ED76E07787668765E3BC
:1040F00071E0718B608B64E371E0738B628B60E3C2
:1041000071E0758B648B61E371E0778B668B62E3A2
:1041100071E0718F608F66E371E0738F628F448FFF
:10412000358F268F978F80A3FF90EF90DF90CF90F1
:1041300008951F920F920FB60F9211242F933F9361
:104140008F939F93AF93BF938091F1089091F20862
:10415000A091F308B091F4083091F00823E0230F08
:104160002D3720F40196A11DB11D05C026E8230FAF
:104170000296A11DB11D2093F0088093F108909341
:10418000F208A093F308B093F4088091F508909199
:10419000F608A091F708B091F8080196A11DB11D8D
:1041A0008093F5089093F608A093F708B093F80869
:1041B000BF91AF919F918F913F912F910F900FBE23
:1041C0000F901F9018952FB7F8946091F108709197
:1041D000F2088091F3089091F4082FBF08953FB73B
:1041E000F8948091F5089091F608A091F708B091A5
:1041F000F80826B5A89B05C02F3F19F00196A11D10
:10420000B11D3FBFBA2FA92F982F8827820F911D6C
:10421000A11DB11DBC01CD0142E0660F771F881FB3
:10422000991F4A95D1F70895CF92DF92EF92FF92AE
:10423000CF93DF936B017C01D2DFEB01C114D1047A
:10424000E104F10471F0CBDF6C1B7D0B683E734021
:10425000A8F381E0C81AD108E108F108C851DC4F81
:10426000EDCFDF91CF91FF90EF90DF90CF90089549
:10427000789484B5826084BD84B5816084BD85B541
:10428000826085BD85B5816085BDEEE6F0E0808108
:1042900081608083E1E8F0E0108280818260808329
:1042A000808181608083E0E8F0E0808181608083AC
:1042B000E1EBF0E0808184608083E0EBF0E08081DE
:1042C00081608083E1E9F0E0808182608083808189
:1042D00081608083E0E9F0E0808181608083E1EAB1
:1042E000F0E0808182608083808181608083E0EA69
:1042F000F0E0808181608083E1E2F1E08081826092
:104300008083808181608083E0E2F1E08081816050
:104310008083EAE7F0E0808184608083808182602E
:104320008083808181608083808180688083109217
:10433000C100089590E0FC013197E131F10508F0EA
:1043400049C08827EE58FF4F8F4FF3C180918000FE
:104350008F7703C0809180008F7D809380000895C7
:1043600084B58F7702C084B58F7D84BD0895809118
:10437000B0008F7703C08091B0008F7D8093B00034
:104380000895809190008F7707C0809190008F7D75
:1043900003C080919000877F809390000895809162
:1043A000A0008F7707C08091A0008F7D03C080910F
:1043B000A000877F8093A0000895809120018F77CF
:1043C00007C0809120018F7D03C080912001877FED
:1043D000809320010895CF93DF9390E0FC01E25990
:1043E000FE4F2491FC01EC54FE4F8491882361F12F
:1043F00090E0880F991FFC01E25DFD4FC591D491BB
:10440000FC01EC5EFD4FA591B491611109C09FB70D
:10441000F8948881209582238883EC912E230BC009
:10442000623061F49FB7F8943881822F809583239E
:104430008883EC912E2B2C939FBF06C08FB7F894E6
:10444000E8812E2B28838FBFDF91CF9108951F9392
:10445000CF93DF93282F30E0F901E85DFE4F849180
:10446000F901E259FE4FD491F901EC54FE4FC49189
:10447000CC23C1F0162F81115DDFEC2FF0E0EE0FA1
:10448000FF1FEC5EFD4FA591B4918FB7F894111109
:1044900005C09C91ED2FE095E92302C0EC91ED2B36
:1044A000EC938FBFDF91CF911F910895CF93DF934E
:1044B000282F30E0F901E85DFE4F8491F901E259BF
:1044C000FE4FD491F901EC54FE4FC491CC2389F0F6
:1044D000811130DFEC2FF0E0EE0FFF1FE650FE4FB2
:1044E000A591B491EC91ED2381E090E021F480E07E
:1044F00002C080E090E0DF91CF910895863308F00C
:10450000865390917B00282F2870977F922B909351
:104510007B0087702091060290E4299F900111246E
:10452000822B80937C0080917A00806480937A0053
:1045300080917A0086FDFCCF8091780020917900EF
:1045400090E0922B08951F93CF93DF93182FEB01E8
:1045500061E041DF209711F460E004C0CF3FD10556
:1045600031F461E0812FDF91CF911F9170CFE12F66
:10457000F0E0E85DFE4FE4914E2F50E0FA013197F4
:10458000E131F10508F092C08827ED57FF4F8F4FBA
:10459000D0C084B5806884BDC7BD8DC084B580623D
:1045A00084BDC8BD88C080918000806880938000F1
:1045B000D0938900C09388007EC080918000806283
:1045C00080938000D0938B00C0938A0074C0809148
:1045D000B00080688093B000C093B3006CC080913D
:1045E000B00080628093B000C093B40064C080913A
:1045F0009000806880939000D0939900C0939800B9
:104600005AC080919000806280939000D0939B006C
:10461000C0939A0050C08091900088608093900071
:10462000D0939D00C0939C0046C08091A0008068FC
:104630008093A0008091A0008F7B8093A000D093F6
:10464000A900C093A80037C08091A0008062809329
:10465000A000D093AB00C093AA002DC08091A00011
:1046600088608093A000D093AD00C093AC0023C0BD
:1046700080912001806880932001D0932901C0930C
:10468000280119C080912001806280932001D0937D
:104690002B01C0932A010FC0809120018860809374
:1046A0002001D0932D01C0932C0105C0C038D10545
:1046B0000CF057CF51CFDF91CF911F910895CB01CF
:1046C0004CC3CB01642F51C397FB072E16F4009403
:1046D00006D077FD08D035D007FC05D03EF4909584
:1046E00081959F4F0895709561957F4F0895A1E240
:1046F0001A2EAA1BBB1BFD010DC0AA1FBB1FEE1F5C
:10470000FF1FA217B307E407F50720F0A21BB30BA6
:10471000E40BF50B661F771F881F991F1A9469F722
:1047200060957095809590959B01AC01BD01CF017E
:104730000895EE0FFF1F881F8BBF0790F691E02DA5
:104740001994AA1BBB1B51E107C0AA1FBB1FA617C8
:10475000B70710F0A61BB70B881F991F5A95A9F72A
:1047600080959095BC01CD010895CF93DF93823061
:10477000910510F482E090E0E091FC08F091FD08D2
:1047800020E030E0C0E0D0E0309711F1408151816D
:1047900048175907C0F04817590761F4828193817F
:1047A000209719F09B838A832BC09093FD088093F8
:1047B000FC0826C02115310519F04217530718F4DB
:1047C0009A01BE01DF01EF010280F381E02DDCCF11
:1047D0002115310509F1281B390B2430310590F4DE
:1047E00012968D919C9113976115710521F0FB0133
:1047F0009383828304C09093FD088093FC08FD019D
:10480000329644C0FD01E20FF31F81939193225031
:1048100031092D933C933AC02091FA083091FB085E
:10482000232B41F420910202309103023093FB08C4
:104830002093FA08209100023091010221153105E0
:1048400041F42DB73EB74091040250910502241B5C
:10485000350BE091FA08F091FB08E217F307A0F49A
:104860002E1B3F0B2817390778F0AC014E5F5F4FC6
:104870002417350748F04E0F5F1F5093FB084093F5
:10488000FA088193919302C0E0E0F0E0CF01DF915C
:10489000CF9108950F931F93CF93DF93009709F45F
:1048A0008CC0FC013297138212820091FC08109197
:1048B000FD080115110581F420813181820F931FBC
:1048C0002091FA083091FB082817390779F5F09301
:1048D000FB08E093FA0871C0D80140E050E0AE1741
:1048E000BF0750F412962D913C911397AD012115FD
:1048F000310509F1D901F3CF9D01DA013383228318
:1049000060817181860F971F8217930769F4EC010C
:1049100028813981260F371F2E5F3F4F3183208337
:104920008A819B8193838283452B29F4F093FD0830
:10493000E093FC0842C01396FC93EE931297ED01AE
:10494000499159919E01240F351FE217F30771F425
:1049500080819181840F951F029611969C938E936E
:104960008281938113969C938E931297E0E0F0E0FE
:10497000D80112968D919C911397009719F0F80128
:104980008C01F6CF8D919C9198012E5F3F4F820F45
:10499000931F2091FA083091FB082817390769F412
:1049A000309729F41092FD081092FC0802C013827F
:1049B00012821093FB080093FA08DF91CF911F91A8
:1049C0000F9108956F927F928F929F92AF92BF92B4
:1049D000CF92DF92EF92FF920F931F93CF93DF93CB
:1049E000EC01009781F4CB01DF91CF911F910F91E2
:1049F000FF90EF90DF90CF90BF90AF909F908F90FF
:104A00007F906F90B2CEFC01E60FF71F9C01225001
:104A10003109E217F30708F4A8C0D9010D911C91E0
:104A2000119706171707A8F00530110508F49BC069
:104A3000C80104978617970708F495C0025011091A
:104A4000061B170B019311936D937C93CF0122DF0B
:104A50008AC05B01A01AB10A4C01800E911EA09180
:104A6000FC08B091FD0840E050E0E12CF12C1097DB
:104A700009F44AC0A815B905D1F56D907C9011973D
:104A8000630182E0C80ED11CCA14DB0480F1A301CB
:104A90004A195B096A0182E0C80ED11C1296BC90CB
:104AA00012971396AC91B5E0CB16D10440F0B282C8
:104AB000A38351834083D9016D937C930AC00E5F19
:104AC0001F4FC301800F911FF90191838083EB2D4C
:104AD000FA2FE114F10431F0D7011396FC93EE9311
:104AE000129741C0F093FD08E093FC083CC08D9103
:104AF0009C9111974817590708F4AC017D01129653
:104B00000D90BC91A02DB3CF8091FA089091FB0835
:104B100088159905E1F446175707C8F480910002FB
:104B200090910102009741F48DB79EB74091040225
:104B300050910502841B950BE817F907B0F4F09328
:104B4000FB08E093FA08F901718360830CC0CB0184
:104B50000CDE7C01009749F0A801BE013DD0CE01DA
:104B600099DEC70104C0CE0102C080E090E0DF9171
:104B7000CF911F910F91FF90EF90DF90CF90BF905A
:104B8000AF909F908F907F906F9008951F93FC013E
:104B900099278827BC01E89411911032E9F3193064
:104BA00010F01E30C8F31B3249F01D3241F46894F6
:104BB00005C0BED0610F711D811D911D1191105353
:104BC0001A30B8F33EF490958095709561957F4FBB
:104BD0008F4F9F4F1F910895FB01DC0102C0019090
:104BE0000D9241505040D8F70895FC0181918617ED
:104BF00021F08823D9F7992708953197CF01089597
:104C0000FB01DC018D91019080190110D9F3990B02
:104C10000895FB01DC0101900D920020E1F7089559
:104C2000FB01DC014150504030F08D910190801922
:104C300019F40020B9F7881B990B0895FB01DC01DA
:104C40004150504048F001900D920020C9F701C03A
:104C50001D9241505040E0F70895FB0151915523BA
:104C6000A9F0BF01DC014D9145174111E1F759F45D
:104C7000CD010190002049F04D9140154111C9F33B
:104C8000FB014111EFCF81E090E001970895FB0116
:104C90009F01E8944230BCF04532ACF44A3029F42C
:104CA00097FB1EF4909581959F4F642F772749DDE0
:104CB000805D8A330CF0895D8193CB010097A9F761
:104CC00016F45DE251931082C9015DC0FA01CF93E1
:104CD000FF93EF9322303CF125322CF5C22FE8945C
:104CE000CA3049F497FB3EF4909580957095619594
:104CF0007F4F8F4F9F4F2C2F332744275527FF93EC
:104D0000EF93F5DCEF91FF91605D6A330CF0695D24
:104D10006193B901CA01605070408040904059F7DA
:104D200016F4CDE2C19310828F919F91CF912BC049
:104D3000592F482F372F262F660F771F881F991F4F
:104D4000660F771F881F991F620F731F841F951F9F
:104D5000660F771F881F991F0895F999FECF92BD9E
:104D600081BDF89A992780B50895262FF999FECF2D
:104D70001FBA92BD81BD20BD0FB6F894FA9AF99A78
:104D80000FBE01960895DC01FC01672F7191772316
:104D9000E1F7329704C07C916D9370836291AE17F6
:104DA000BF07C8F3089511E0C6E2D1E000E005C0F6
:104DB000802FFE01BEDC2196011DC732D10780E0A5
:084DC0000807B1F7F894FFCFDA
:104DC8000000FE0820000152494E470041544800A7
:104DD80052454356007C0052554E20434F4D544F88
:104DE8005220434F4D414E4420000000000006046D
:104DF8004449474954414C5752495445005245414A
:104E0800444449474954414C005245414444494768
:104E18004954414C0900414E414C4F475245414489
:104E280000414E414C4F47524541440900414E41D3
:104E38004C4F47575249544500454550524F4D57DE
:104E48005249544500454550524F4D524541440042
:104E5800454550524F4D524541440900534554472A
:104E68005549440047455447554944004D4F44551A
:104E78004C45204D3935204F4E00415445300041B6
:104E8800542B4346554E3F0041542B4350494E3F07
:104E98000041542B5141554443483D320041542B65
:104EA800514D49433D322C31320041542B434D473B
:104EB800463D310041542B514750534346473F002C
:104EC80041542B514750534346473D22475053497D
:104ED8004E4954222C310041542B51494F50454ED4
:104EE8003D2200222C2200222C0041542B514953F0
:104EF800454E44001A0041542B5147505352443DEB
:104F0800224E4D45412F524D432200202D2D200089
:104F1800524553504F4E5345204641494C00444951
:104F28005341424C452045434F3A20004D393520E6
:104F380052454144593A200053494D204341524477
:104F48003A2000415544494F3A20004D49433A2000
:104F58000054455854204D4F44453A202000494EAE
:104F6800464F204750533A2000494E495420475055
:104F7800533A200041542B514944454143543D3F45
:104F88000044455341435449564520204750525305
:104F98002F435344205044503A200041542B514948
:104FA8004445414354004552524F520044455341F1
:104FB800435449564520475052532F435344205099
:104FC80044503A200041542B514953484F575241BD
:104FD8003D310053484F57204144445245535320D4
:104FE80053454E4445523A200041542B51494845B7
:104FF80041443D3100414444204950204845414402
:105008003A200041542B514953484F5750543D3191
:105018000053484F572050524F544F434F4C3A205B
:1050280000524543562046524F4D3A0049504400DD
:10503800544350002B434D474C3A200041542B43D6
:105048004D474C3D2252454320554E52454144223E
:105058000000000000271441542B51495354415477
:1050680000544350205354415455533A200053544C
:105078004154453A20434F4E4E454354204F4B0030
:105088003139322E3234312E3136362E3233300029
:1050980054525920535441525420434F4E4E454385
:1050A8005420544F205345525645522055445000E1
:1050B800434F4E4E454354494F4E2054494D454F5A
:1050C800555400434F4E4E454354204641494C00E9
:1050D800494E495420434F4E4E454354494F4E3A4A
:1050E800200053454E4420444154413A2000534542
:1050F8004E442054494D454F55540053454E442085
:105108004F4B00475053204C4F434154494F4E3A60
:10511800200000000000CF16000000009D1C0000C9
:0E5128000000021D751BA91CD71CBB1CF71C28
:00000001FF
