:1000000015C1000044C1000042C1000040C1000011
:100010003EC100003CC100003AC1000038C10000F0
:1000200036C1000034C1000032C1000030C1000000
:100030002EC100002CC100002AC1000028C1000010
:1000400026C1000024C1000022C1000020C1000020
:100050001EC100001CC100001AC100000C94B41D98
:1000600016C100000C947A1A0C945E1B10C100009B
:100070000EC100000CC100000AC1000008C1000050
:1000800006C1000004C1000002C1000000C1000060
:100090000C94AD1A0C949D1BFAC00000F8C000002F
:1000A000F6C00000F4C00000F2C00000F0C0000084
:1000B000EEC00000ECC00000EAC00000E8C0000094
:1000C000E6C00000E4C00000E2C000000C94E01AAA
:1000D0000C94DC1BDCC000000C94131B0C941B1C48
:1000E000D6C00000CB1ECE1EC11EC51E051FD21ECF
:1000F000D61EDC1EE01EE41EEA1EEE1EF21E051FCA
:10010000F81EFC1E001F0000090A02080B0C0D0758
:1001100006030401000000000000000000000000D1
:1001200000000000000000000000000000000000CF
:10013000000011100F00000000000000000000008F
:10014000000000000000000000000000010210207C
:1001500020080810204010204080020102010804FD
:100160000201010204081020408080402010080491
:1001700002018004020180402010080402010804EA
:10018000020101020408102040800102040810202E
:100190004080050505050705080808080202020257
:1001A0000A0A080804040404010101010101010113
:1001B0000303030303030303040707070C0C0C0CDE
:1001C0000C0C0C0C020202020606060606060606C7
:1001D0000B0B0B0B0B0B0B0B00002000230026005E
:1001E00029002C002F00320000010000030106014D
:1001F000090100002200250028002B002E003100FC
:10020000340002010000050108010B01000021007B
:10021000240027002A002D003000330001010000D7
:10022000040107010A012A04E21C300411241FBE44
:10023000CFEFD1E2DEBFCDBF00E00CBF14E0A0E005
:10024000B2E0E6E0F6E400E00BBF02C007900D92DA
:10025000A23FB107D9F718E0A2EFB4E001C01D92A8
:10026000A138B107E1F711E0C5E1D1E000E006C037
:1002700021970109802FFE010E94CE1FC331D107B3
:1002800080E00807A9F70E94BA190C94F222B8CEB0
:100290000895CF93DF93EC01CB0179836883FE014E
:1002A000EA5FFD4F51834083662757FD6095762FA7
:1002B0000E945A1CFE01EE5FFD4F80E197E2A0E034
:1002C000B0E080839183A283B383229680E092E0A2
:1002D000FE019C01119221503040E1F7DF91CF9156
:1002E0000895CF93DF93EC01CB0179836883FE01FE
:1002F000EA5FFD4F20E835E23183208340E855E294
:1003000060E070E00E945A1CFE01EE5FFD4F80E14C
:1003100097E2A0E0B0E080839183A283B38322962A
:1003200080E092E0FE019C01119221503040E1F703
:10033000DF91CF910895FC018081918108959F9272
:10034000AF92BF92CF92DF92EF92FF920F931F93E3
:10035000CF93DF93CDB7DEB7A0970FB6F894DEBF8B
:100360000FBECDBF7C01CE0149960E94E90F8E01E0
:100370000F5E1F4FC8010E94E90F88E0B82EA02E23
:10038000912E670182E0C80ED81EF701808191810D
:10039000DC01ED91FC910480F581E02D1995892B0C
:1003A00099F5CE0109960E94E90FFE013996AA2D12
:1003B000B92D8B2D01900D928A95E1F7D6014D91C3
:1003C0005D916D917C91CE0109960E942E108E0157
:1003D000075E1F4F29893A894B895C896D897E891F
:1003E0008F89988D0E94381029833A834B835C83D0
:1003F0006D837E838F839887005111090E9494102A
:10040000882319F280E001C081E0A0960FB6F8942D
:10041000DEBF0FBECDBFDF91CF911F910F91FF9037
:10042000EF90DF90CF90BF90AF909F9008959F92F4
:10043000AF92BF92CF92DF92EF92FF920F931F93F2
:10044000CF93DF93CDB7DEB7A0970FB6F894DEBF9A
:100450000FBECDBF6C01CE0149960E94E90F8E01FF
:100460000F5E1F4FC8010E94E90FF8E0BF2EA02EBB
:10047000912ED6018D919C91DC01ED91FC9106802D
:10048000F781E02D199597FF2DC0CE0109960E94A6
:10049000E90FFE013996AA2DB92D8B2D01900D92F1
:1004A0008A95E1F78E01075E1F4F29893A894B89AA
:1004B0005C896D897E898F89988D0E943810298387
:1004C0003A834B835C836D837E838F8398871AE0A6
:1004D000E12EF12C00E010E00E940C118111C9CF37
:1004E0008FEF9FEFA0960FB6F894DEBF0FBECDBF83
:1004F000DF91CF911F910F91FF90EF90DF90CF9000
:10050000BF90AF909F9008950F931F93CF93DF9369
:10051000EC018B0168EB72E00E947116C80187DF65
:1005200097FD05C0682FCE010E945317F7CFCE016B
:10053000DF91CF911F910F910895AF92BF92CF920B
:10054000DF92EF92FF920F931F93CF93DF93CDB77C
:10055000DEB7C850D2400FB6F894DEBF0FBECDBF95
:100560008C015B016A0140E050E0BA010E943D1439
:100570008DE292E0F801918380837801F0E1EF0E43
:10058000F11CC70185DEF801B786A686B601CE014B
:100590000196A7DE28E032E0FE013196D7010190F6
:1005A0000D9221503040D9F7C85FDD4F0FB6F89457
:1005B000DEBF0FBECDBFDF91CF911F910F91FF9096
:1005C000EF90DF90CF90BF90AF900895DF92EF92C1
:1005D000FF920F931F93CF93DF93CDB7DEB7E097D2
:1005E0000FB6F894DEBF0FBECDBF8C017B0166E075
:1005F00072E0CE0101960E94711642E050E0BE0109
:100600006F5F7F4FC7010E94AD17D82ECE010196B4
:100610000E940616DD20C1F06BE072E0CE0101966B
:100620000E947116BE016F5F7F4FF8018685978526
:1006300046D2CE0101960E940616F801668577859E
:10064000CE01019661DF7FC06FE072E0CE010196BE
:100650000E94711642E050E0BE016F5F7F4FC701FC
:100660000E94AD17D82ECE0101960E940616DD20FD
:1006700009F46FC0B701CE0149960E949A16F8019D
:1006800066857785AE01475E5F4FCE0101960E9479
:10069000450CCE0149960E9406166B857C854AE082
:1006A000CE0185960E94CF164F81588569857A853F
:1006B0002AE0CE014F960E94FA16BE016F5F7F4F6F
:1006C000CE0149960E949A1664E172E0CE014996E5
:1006D0000E947717BE01615E7F4F0E94661764E13A
:1006E00072E00E947717BE016B5D7F4F0E94661714
:1006F00064E172E00E947717BE016D5E7F4F0E9439
:100700006617BC01CE018B960E949A16ADD0BE0131
:10071000655D7F4F00D1CE018B960E940616CE01FB
:1007200049960E940616CE014F960E940616CE01EB
:1007300085960E940616CE0143960E940616CE01AB
:100740000D960E940616CE0101960E94061681E0C3
:1007500001C080E0E0960FB6F894DEBF0FBECDBFBB
:10076000DF91CF911F910F91FF90EF90DF9008954F
:10077000DF92EF92FF920F931F93CF93DF93CDB74A
:10078000DEB72C970FB6F894DEBF0FBECDBF8C013D
:10079000DC011E968D919C911F97CDDDDC01ED91C2
:1007A000FC910480F581E02D1995F80170967F0188
:1007B000892B31F1D8011E966D917C911F97CE0146
:1007C0000796A2DEBE01695F7F4FCE0101960E94AF
:1007D0009A16BE016F5F7F4FC801F8DED82ECE019A
:1007E00001960E940616D11007C0C701A4DDBE0104
:1007F000695F7F4F0E94CD18CE0107960E940616B2
:10080000C70199DDDC01ED91FC910480F581E02DBB
:100810001995892B89F0B701CE01019675DEF80193
:100820008685978588DDBE016F5F7F4F0E94CD185A
:10083000CE0101960E9406162C960FB6F894DEBFE4
:100840000FBECDBFDF91CF911F910F91FF90EF9021
:10085000DF90089568EB72E082EF94E00C947116DB
:1008600082EF94E00C940616CF93DF938091F80406
:100870009091F904892B79F489E092E00E94B619ED
:10088000D82FC92FE82FF92F1192CF0101DDD09376
:10089000F804C093F9048091F8049091F904DF9171
:1008A000CF9108950F931F93CF93DF93CDB7DEB70A
:1008B000C850D2400FB6F894DEBF0FBECDBF8C013A
:1008C000CE010196E6DC28E032E0FE013196D80147
:1008D000119601900D9221503040D9F7C85FDD4F3D
:1008E0000FB6F894DEBF0FBECDBFDF91CF911F9141
:1008F0000F910895CF93DF93FC012081222341F0D3
:10090000EB01019618DDBE01DF91CF910C94F51833
:10091000DF91CF910895CF93DF931F921F92CDB7B0
:10092000DEB7019669837A8306DD69817A810F904B
:100930000F90DF91CF910C94F518CF92DF92EF9248
:10094000FF920F931F93CF93DF93EC016A0179011C
:10095000C8DCFE01E85FFD4FD182C0823296F18291
:10096000E082C45FDD4F19830883DF91CF911F912F
:100970000F91FF90EF90DF90CF900895CF92DF928C
:10098000EF92FF920F931F93CF93DF9300D000D08D
:10099000CDB7DEB78C01FC01E45FFD4F61E08081E3
:1009A0000E94061F780188EFE81A8DEFF80A61E0CF
:1009B000F70180810E94061F60E0F70180810E949C
:1009C000421F065F1D4F62E0F80180810E94061FF2
:1009D00068E873E180E090E00E942F1EF8018081BA
:1009E0000E94711F892B01F561E0F70180810E944F
:1009F000421FC12CD12CF80180810E94711F892BCC
:100A000051F464E670E080E090E00E942F1EFFEF5A
:100A1000CF1ADF0AF0CFF2E3CF16D104E4F460E09E
:100A2000F70180810E94421F64E670E080E090E060
:100A30000E942F1E6FE272E0CE0101960E94711695
:100A400013DFBE016F5F7F4F55DFCE0101960E941D
:100A5000061681E001C080E026960FB6F894DEBF4E
:100A60000FBECDBFDF91CF911F910F91FF90EF90FF
:100A7000DF90CF900895CF93DF931F921F92CDB751
:100A8000DEB769837A8357DC69817A810F900F9092
:100A9000DF91CF910C94F518CF93DF931F921F92A3
:100AA000CDB7DEB769837A8346DC4AE050E06981DE
:100AB0007A810F900F90DF91CF910C94A019CF9372
:100AC000DF931F921F92CDB7DEB769837A8333DC41
:100AD00069817A810F900F90DF91CF910C94CD189E
:100AE000CF93DF93EC0108960E940616CE01029682
:100AF000DF91CF910C9406160F931F93CF93DF9342
:100B00008C01EB01FB0181919191BF01F80181936F
:100B10009193CF010E949A16BE01685F7F4FC80172
:100B20000896DF91CF911F910F910C949A160F9315
:100B30001F93CF93DF931F921F92CDB7DEB78C0127
:100B4000CB0169837A83FBDB69817A81882319F081
:100B5000C801DADC05C068EB72E0C8010E947116BA
:100B6000C8010F900F90DF91CF911F910F910895C1
:100B7000CF93DF93EC0168EB72E002960E9471164E
:100B800068EB72E0CE010896DF91CF910C9471165C
:100B90008F929F92AF92BF92CF92DF92EF92FF928D
:100BA0000F931F93CF93DF93CDB7DEB768970FB640
:100BB000F894DEBF0FBECDBF6C018B01ADB6BEB6E3
:100BC000D7DF68EB72E0CE0143960E94711668EBA6
:100BD00072E0CE010D960E947116B801CE01079603
:100BE000A6DF68EB72E0CE0107960E948E17811196
:100BF0007CC08DB69EB64B855C858DB79EB7841B39
:100C0000950B0FB6F8949EBF0FBE8DBFEDB7FEB724
:100C100031967F0120E030E0BF01CE0107960E94AF
:100C2000D3170B851C8502501109F701E00FF11F46
:100C300080818D3019F401501109F7CF8A30D9F332
:100C4000F701E00FF11F60816D30E9F06A30D9F0F3
:100C5000CE0101960E94B716BE01635F7F4FCE01A1
:100C600001960E946617BC01CE010D960E94851662
:100C7000CE0101960E94061601501109E1CF8A307B
:100C800039F501501109F701E00FF11F80818D3016
:100C9000B1F7F7CFF701E00FF11F60816D30D9F0A8
:100CA0006A30C9F0CE0101960E94B716BE016D5E92
:100CB0007F4FCE0101960E946617BC01CE0143967C
:100CC0000E948516CE0101960E9406160150110958
:100CD00017FFE0CF02C060E2E5CF0FB6F8949EBEEA
:100CE0000FBE8DBE20E030E002C021E030E0F60112
:100CF00021933193CF01BE016D5E7F4F0E94851617
:100D0000BE01635F7F4FC60108960E948516CE0123
:100D100007960E940616CE010D960E940616CE0179
:100D200043960E940616C6010FB6F894BEBE0FBECB
:100D3000ADBE68960FB6F894DEBF0FBECDBFDF9193
:100D4000CF911F910F91FF90EF90DF90CF90BF90C8
:100D5000AF909F908F900895EF92FF920F931F9303
:100D6000CF93DF9300D000D0CDB7DEB78C017B01ED
:100D70006DE372E0CE0101960E947116BE016F5FB5
:100D80007F4FC70178DECE0101960E940616B7019B
:100D9000C801FEDEC80126960FB6F894DEBF0FBE6E
:100DA000CDBFDF91CF911F910F91FF90EF900895EC
:100DB000EF92FF920F931F93CF93DF9300D000D059
:100DC000CDB7DEB78C017B0162E472E0CE01019603
:100DD0000E947116BE016F5F7F4FC7014CDECE01CE
:100DE00001960E940616B701C801D2DEC8012696F8
:100DF0000FB6F894DEBF0FBECDBFDF91CF911F912C
:100E00000F91FF90EF900895EF92FF920F931F9331
:100E1000CF93DF9300D000D0CDB7DEB78C017B013C
:100E20006BE472E0CE0101960E947116BE016F5F05
:100E30007F4FC70120DECE0101960E940616B70142
:100E4000C801A6DEC80126960FB6F894DEBF0FBE15
:100E5000CDBFDF91CF911F910F91FF90EF9008953B
:100E6000EF92FF920F931F93CF93DF9300D000D0A8
:100E7000CDB7DEB78C017B0164E572E0CE0101964F
:100E80000E947116BE016F5F7F4FC701F4DDCE0176
:100E900001960E940616B701C8017ADEC80126969F
:100EA0000FB6F894DEBF0FBECDBFDF91CF911F917B
:100EB0000F91FF90EF900895EF92FF920F931F9381
:100EC000CF93DF9300D000D0CDB7DEB78C017B018C
:100ED00060E672E0CE0101960E947116BE016F5F5E
:100EE0007F4FC701C8DDCE0101960E940616B701EB
:100EF000C8014EDEC80126960FB6F894DEBF0FBEBD
:100F0000CDBFDF91CF911F910F91FF90EF9008958A
:100F1000EF92FF920F931F93CF93DF9300D000D0F7
:100F2000CDB7DEB78C017B016DE672E0CE01019694
:100F30000E947116BE016F5F7F4FC7019CDDCE011D
:100F400001960E940616B701C80122DEC801269646
:100F50000FB6F894DEBF0FBECDBFDF91CF911F91CA
:100F60000F91FF90EF900895EF92FF920F931F93D0
:100F7000CF93DF9300D000D0CDB7DEB78C017B01DB
:100F800067E772E0CE0101960E947116BE016F5FA5
:100F90007F4FC70170DDCE0101960E940616B70192
:100FA000C801F6DDC80126960FB6F894DEBF0FBE65
:100FB000CDBFDF91CF911F910F91FF90EF900895DA
:100FC000EF92FF920F931F93CF93DF9300D000D047
:100FD000CDB7DEB78C017B0163E872E0CE010196EC
:100FE0000E947116BE016F5F7F4FC70144DDCE01C5
:100FF00001960E940616B701C801CADDC8012696EF
:101000000FB6F894DEBF0FBECDBFDF91CF911F9119
:101010000F91FF90EF9008958F929F92AF92BF92A1
:10102000CF92DF92EF92FF920F931F93CF93DF93B4
:1010300000D000D0CDB7DEB76C017B014A01590169
:101040006AE972E0CE0101960E947116BE016F5FDF
:101050007F4FC70134DDCE0101960E940616B40110
:10106000CE0101960E949A16BE016F5F7F4FC701A5
:1010700026DDCE0101960E94061666EA72E0CE01D8
:1010800001960E947116BE016F5F7F4FC70117DD89
:10109000CE0101960E940616B501CE0101960E946E
:1010A0009A16BE016F5F7F4FC70109DDCE01019621
:1010B0000E9406166AEA72E0CE0101960E9471163D
:1010C000BE016F5F7F4FC701FADCCE0101960E941F
:1010D0000616B801C701E0DCB701C60159DDC6013B
:1010E00026960FB6F894DEBF0FBECDBFDF91CF912D
:1010F0001F910F91FF90EF90DF90CF90BF90AF9036
:101100009F908F900895CF92DF92EF92FF920F936E
:101110001F93CF93DF93CDB7DEB72C970FB6F8941C
:10112000DEBF0FBECDBF7C018B016A016DEA72E0AC
:10113000CE0101960E947116BE016F5F7F4FC801FC
:101140009ADCCE0101960E940616B801CE010796E0
:10115000EEDC68EB72E0CE0107960E948E178111DB
:1011600014C0B601CE0101960E949A16BE016F5FAF
:101170007F4FC801A4DCCE0101960E940616C8016B
:10118000DAD867EB72E00E94DB18B801C70100DD16
:10119000CE0107960E940616C7012C960FB6F8944A
:1011A000DEBF0FBECDBFDF91CF911F910F91FF909A
:1011B000EF90DF90CF900895EF92FF920F931F93DF
:1011C000CF93DF9300D000D0CDB7DEB78C017B0189
:1011D000BA01CE0101960E949A16BE016F5F7F4F41
:1011E000C70149DCCE0101960E940616B701C8016D
:1011F000CFDCC80126960FB6F894DEBF0FBECDBF78
:10120000DF91CF911F910F91FF90EF900895EF9292
:10121000FF920F931F93CF93DF9300D000D0CDB7F1
:10122000DEB78C017B0169EB72E0CE0101960E9472
:101230007116AE014F5F5F4FB701C801BDDFCE0130
:1012400001960E940616C80126960FB6F894DEBFD6
:101250000FBECDBFDF91CF911F910F91FF90EF9007
:1012600008950F931F93CF93DF938C01EB01FB0144
:1012700021913191BF01FC0121933193CF010E9453
:101280008516BE01685F7F4FC80108960E948516CB
:10129000C801DF91CF911F910F9108950F931F9374
:1012A000CF93DF93CDB7DEB72C970FB6F894DEBFA0
:1012B0000FBECDBF8B01FB0180819181892B89F508
:1012C000BA01CE0101960E949A16B8016E5F7F4F57
:1012D000CE0101960E9466176EEC72E00E947717AD
:1012E000B801685F7F4F0E946617BC01CE01079668
:1012F0000E949A16CE0101960E940616BE01695FF1
:101300007F4FCE0101960E949A16AEDABE016F5F42
:101310007F4FF0DACE0101960E940616CE010796A5
:101320000DC063ED72E0CE0101960E9471169CDA49
:10133000BE016F5F7F4FDEDACE0101960E94061676
:101340002C960FB6F894DEBF0FBECDBFDF91CF91C4
:101350001F910F910895CF93DF93EC01C45FDD4F90
:1013600060E088810E94421F68EE73E080E090E0B8
:101370000E942F1E61E088810E94421F64E670E097
:1013800080E090E0DF91CF910C942F1E0F931F937C
:10139000CF93DF93CDB7DEB7A2970FB6F894DEBF39
:1013A0000FBECDBF8C01CE010F96E2DBC801E6DA9D
:1013B000B801CE010196D0DCBE016F5F7F4FCE0138
:1013C0000F964FDFCE0101968BDB8F8598890197B1
:1013D00079F361EE72E0CE014D960E947116BE0166
:1013E000615F7F4FCE01019687DBAE01435E5F4FA9
:1013F000BE016F5F7F4FC80151DFCE01019670DBE8
:10140000CE014D960E940616B801CE010196D0DCA1
:10141000BE016F5F7F4FCE010F9623DFCE01019695
:101420005FDB8F859889019779F36FEE72E0CE01CB
:101430004D960E947116BE01615F7F4FCE010196ED
:101440005BDBAE01435E5F4FBE016F5F7F4FC80144
:1014500025DFCE01019644DBCE014D960E94061693
:10146000B801CE010196D0DCBE016F5F7F4FCE0187
:101470000F96F7DECE01019633DB6BEF72E0CE0103
:101480004D960E947116BE01615F7F4FCE0101969D
:1014900033DBAE01435E5F4FBE016F5F7F4FC8011C
:1014A000FDDECE0101961CDBCE014D960E94061694
:1014B000B801CE010196D4DCBE016F5F7F4FCE0133
:1014C0000F96CFDECE0101960BDB66E073E0CE0116
:1014D0004D960E947116BE01615F7F4FCE0101964D
:1014E0000BDBAE01435E5F4FBE016F5F7F4FC801F4
:1014F000D5DECE010196F4DACE014D960E94061695
:10150000B801CE010196D8DCBE016F5F7F4FCE01DE
:101510000F96A7DECE010196E3DA6EE073E0CE010E
:101520004D960E947116BE01615F7F4FCE010196FC
:10153000E3DAAE01435E5F4FBE016F5F7F4FC801CC
:10154000ADDECE010196CCDACE014D960E94061694
:10155000B801CE010196DCDCBE016F5F7F4FCE018A
:101560000F967FDECE010196BBDA64E173E0CE0117
:101570004D960E947116BE01615F7F4FCE010196AC
:10158000BBDAAE01435E5F4FBE016F5F7F4FC801A4
:1015900085DECE010196A4DACE014D960E94061694
:1015A000B801CE010196E0DCBE016F5F7F4FCE0136
:1015B0000F9657DECE01019693DA61E273E0CE0119
:1015C0004D960E947116BE01615F7F4FCE0101965C
:1015D00093DAAE01435E5F4FBE016F5F7F4FC8017C
:1015E0005DDECE0101967CDACE014D960E94061694
:1015F000B801CE010196E4DCBE016F5F7F4FCE01E2
:101600000F962FDECE0101966BDA6CE273E0CE010D
:101610004D960E947116BE01615F7F4FCE0101960B
:101620006BDAAE01435E5F4FBE016F5F7F4FC80153
:1016300035DECE01019654DACE014D960E94061693
:1016400067E373E0CE014D960E947116AE01435ED2
:101650005F4FB801CE010196AFDDBE016F5F7F4FD6
:10166000CE010F96FEDDCE0101963ADACE014D96FF
:101670000E94061664E473E0CE014D960E94711636
:10168000BE01615F7F4FCE01019636DAAE01435E47
:101690005F4FBE016F5F7F4FC80100DECE01019634
:1016A0001FDACE014D960E9406166EE573E0CE015C
:1016B0004D960E947116AE01435E5F4FB801CE0198
:1016C00001967ADDBE016F5F7F4FCE010F96C9DDB7
:1016D000CE01019605DACE014D960E9406168F8541
:1016E0009889019711F369E673E0CE0147960E944D
:1016F0008E178111DACF6FE673E0CE014D960E940E
:101700007116BE01615F7F4FCE010196F5D9AE0122
:10171000435E5F4FBE016F5F7F4FC801BFDDCE01EB
:101720000196DED9CE014D960E94061668E873E058
:10173000CE014D960E947116AE01435E5F4FB80117
:10174000CE01019639DDBE016F5F7F4FCE010F964E
:1017500088DDCE010196C4D9CE014D960E940616B1
:1017600066E973E0CE014D960E947116BE01615F7D
:101770007F4FCE010196C0D9AE01435E5F4FBE01DF
:101780006F5F7F4FC8018ADDCE010196A9D9CE01D6
:101790004D960E9406166CEA73E0CE014D960E94AB
:1017A0007116AE01435E5F4FB801CE01019604DDB4
:1017B000BE016F5F7F4FCE010F9653DDCE010196C4
:1017C0008FD9CE014D960E94061668EB73E0CE01CC
:1017D0004D960E947116BE01615F7F4FCE0101964A
:1017E0008BD9AE01435E5F4FBE016F5F7F4FC80173
:1017F00055DDCE01019674D9CE014D960E94061694
:1018000066EC73E0CE014D960E947116AE01435E08
:101810005F4FB801CE010196CFDCBE016F5F7F4FF5
:10182000CE010F961EDDCE0101965AD9CE014D96FE
:101830000E94061664ED73E0CE014D960E9471166B
:10184000BE01615F7F4FCE01019656D9AE01435E66
:101850005F4FBE016F5F7F4FC80120DDCE01019653
:101860003FD9CE014D960E940616C80174DDCE0107
:101870000F9636D9A2960FB6F894DEBF0FBECDBF35
:10188000DF91CF911F910F9108957F928F929F9238
:10189000AF92BF92CF92DF92EF92FF920F931F937E
:1018A000CF93DF93CDB7DEB7AA970FB6F894DEBF1C
:1018B0000FBECDBF7C018A0168EB72E00E947116F9
:1018C00057018CE0A80EB11C68EB72E0C5010E94C4
:1018D00071166701E2E1CE0ED11C68EB72E0C60121
:1018E0000E947116B801CE0185960E949A1668EB87
:1018F00072E0CE014F960E94711668EB72E0CE0145
:1019000049960E94711668EB72E0CE0143960E94E0
:10191000711668EB72E0CE010D960E94711668EBAD
:1019200072E0CE0107960E94711664EE73E0CE015C
:1019300001960E947116BE016F5F7F4FCE018596A2
:101940000E943E188C01CE0101960E9406161016C8
:1019500011060CF0CEC09801275E3F4FA801465FEC
:101960005F4FBE016B5D7F4FCE0101960E94411813
:10197000BE016F5F7F4FCE014F960E948516CE014C
:1019800001960E940616065E1F4FA8016AE0CE016E
:1019900085960E9402189C01A801BE016B5D7F4FD5
:1019A000CE0101960E944118BE016F5F7F4FCE01AC
:1019B00049960E948516CE0101960E9406166FEE8A
:1019C00073E0CE0101960E947116BE016F5F7F4FDA
:1019D000CE0185960E943E184C01CE0101960E94D0
:1019E0000616F3E08F0E911C6FE674E0CE010196AF
:1019F0000E947116A401BE016F5F7F4FCE018596D4
:101A00000E9421188C01CE0101960E94061617FF34
:101A10001EC063EF73E0CE0101960E947116A4010F
:101A2000BE016F5F7F4FCE0185960E9421188C0109
:101A3000CE0101960E94061617FF09C0A4016AE3B1
:101A4000CE0185960E9402188C01712C02C0772469
:101A500073949801A401BE016B5D7F4FCE01019686
:101A60000E944118BE016F5F7F4FCE0143960E94D6
:101A70008516CE0101960E9406167720F1F0980196
:101A80002D5F3F4FA801BE016B5D7F4FCE010196D8
:101A90000E944118BE016F5F7F4FCE010D960E94DC
:101AA0008516CE0101960E940616CE0143960E942D
:101AB0008518A8014C5F5F4F07C0CE0143960E9476
:101AC0008518A8014F5F5F4F9A01260F371FBE018F
:101AD0006B5D7F4FCE0101960E944118BE016F5F82
:101AE0007F4FCE0107960E948516CE0101960E9477
:101AF0000616BE01615E7F4FC7010E948516CE01AA
:101B000049960E948518F7016683778380879187BD
:101B1000CE0143960E948518F70173876287BE0144
:101B2000635F7F4FC5010E948516BE01695F7F4FCD
:101B3000C6010E948516CE0107960E940616CE01A8
:101B40000D960E940616CE0143960E940616CE01FF
:101B500049960E940616CE014F960E940616CE01A7
:101B600085960E940616C701AA960FB6F894DEBFA6
:101B70000FBECDBFDF91CF911F910F91FF90EF90DE
:101B8000DF90CF90BF90AF909F908F907F900895FF
:101B90002F923F924F925F926F927F928F929F927D
:101BA000AF92BF92CF92DF92EF92FF920F931F936B
:101BB000CF93DF9300D000D0CDB7DEB77C018A0190
:101BC00068EB72E00E947116470186E0880E911C56
:101BD00068EB72E0C4010E94711637018CE0680E58
:101BE000711C68EB72E0C3010E947116270182E14B
:101BF000480E511C68EB72E0C2010E947116170179
:101C000088E1280E311C68EB72E0C1010E94711658
:101C100067EF73E0CE0101960E947116BE016F5FFF
:101C20007F4FC8010E943E186C01CE010196EED78D
:101C30006CE2C8010E941E185C01A601495F5F4F5B
:101C40009C01B801CE0101960E944118BE016F5F50
:101C50007F4FC7010E948516CE010196D7D7A501F7
:101C60004F5F5F4F6CE2C8010E9402186C019C013B
:101C700021503109A5014E5F5F4FB801CE01019699
:101C80000E944118BE016F5F7F4FC4010E948516FC
:101C9000CE010196BBD7A6014F5F5F4F6CE2C80132
:101CA0000E9402185C019C0121503109A6014E5F7F
:101CB0005F4FB801CE0101960E944118BE016F5FCF
:101CC0007F4FC3010E948516CE0101969FD7A501C3
:101CD0004F5F5F4F6CE2C8010E94021802965C01E0
:101CE000AC0162E2C8010E9402186C019C01A501CE
:101CF000B801CE0101960E944118BE016F5F7F4F6F
:101D0000C2010E948516CE01019680D783E0C80EDD
:101D1000D11CA6016AE0C8010E9402189C01A6011C
:101D2000B801CE0101960E944118BE016F5F7F4F3E
:101D3000C101EBD7CE01019669D7C70126960FB630
:101D4000F894DEBF0FBECDBFDF91CF911F910F91F1
:101D5000FF90EF90DF90CF90BF90AF909F908F90CB
:101D60007F906F905F904F903F902F9008952F92AB
:101D70003F924F925F926F927F928F929F92AF921B
:101D8000BF92CF92DF92EF92FF920F931F93CF9368
:101D9000DF93CDB7DEB7CF54D1090FB6F894DEBFCD
:101DA0000FBECDBF3C0160967FAF6EAF60976FEF07
:101DB00073E08E010F5F1F4FC80193D7B801C301B5
:101DC0000E943B05C80122D75E0183E4A80EB11C26
:101DD000B301C5010E9497052E019DE3490E511CD8
:101DE00068EB72E0C2017DD768EB72E0C5010E942A
:101DF0008E178111C0C06096EEADFFAD60972C9636
:101E0000FFAFEEAF2C97812C912C212C312C680147
:101E100067EF73E0C60165D7A401B601C5010E9452
:101E200021188C01C601F2D667EF73E0C60159D7BD
:101E3000A801495F5F4FB601C5010E9421184C01FE
:101E4000C601E4D697FE11C0F50124813581A801B1
:101E5000B501C6010E944118B601C20156D7C6019C
:101E6000D5D62A961FAE2A970FC09401A801B501B6
:101E7000C6010E944118B601C20147D7C601C6D6A5
:101E8000F1E02A96FFAF2A97B201CE014F9652D7C2
:101E9000AE01415E5F4FB301C6017ADECE014F96BF
:101EA000B5D6B601CE01C79645D7BE01695F7F4F53
:101EB000CE01C1963FD7BE01635F7F4FCE018B96A7
:101EC00039D7BE016D5E7F4FCE01859633D7BE01F7
:101ED000675E7F4FCE014F962DD78EE190E00E9436
:101EE000B6192E969FAF8EAF2E97CE014F967C01DE
:101EF0008E010B5D1F4F9E01255D3F4FAE014F5C74
:101F00005F4FBE01695C7F4F2E968EAD9FAD2E97C1
:101F100036D29FEF291A390A2C96EEADFFAD2C97D9
:101F20002E968EAD9FAD2E97819391932C96FFAFF9
:101F3000EEAF2C97C7016AD6C80168D6CE018B9642
:101F400065D6CE01C19662D6CE01C7965FD6CE01C8
:101F500049965CD6CE01439659D6CE010D9656D6FB
:101F6000CE01079653D6C60151D62A969FAD2A9721
:101F700091114ECF02C0212C312CF101EE0FFF1F29
:101F800060968EAD9FAD6097E80FF91F11821082A9
:101F9000CE01CD963BD6CE018D5B9F4F37D6C15B30
:101FA000DF4F0FB6F894DEBF0FBECDBFDF91CF91EC
:101FB0001F910F91FF90EF90DF90CF90BF90AF9067
:101FC0009F908F907F906F905F904F903F902F9059
:101FD00008950F931F93CF93DF93EC010E94FE1D92
:101FE0006C837D838E839F830091FA041091FB04A0
:101FF0002091FC043091FD0460177107820793075C
:10200000A0F40091FE041091FF042091000530918E
:1020100001050F5F1F4F2F4F3F4F0093FE0410939A
:10202000FF0420930005309301056093FA04709338
:10203000FB048093FC049093FD048091FE04909136
:10204000FF04A0910005B091010588839983AA83BC
:10205000BB83DF91CF911F910F910895FC011082F6
:102060001182128213824483558366837783089595
:10207000CF92DF92EF92FF920F931F93CF93DF9354
:10208000CDB7DEB760970FB6F894DEBF0FBECDBFF9
:1020900029873A874B875C876D877E878F87988BE8
:1020A000F80189859A85AB85BC854D855E856F85F0
:1020B0007889C480D580E680F7808A019B010C195D
:1020C0001D092E093F096801790140175107620770
:1020D000730718F40197A109B10940815181628108
:1020E0007381841B950BA60BB70B89839A83AB83F3
:1020F000BC83CD82DE82EF82F886282F3A814B8125
:102100005C816C2D7E818F81988560960FB6F894E6
:10211000DEBF0FBECDBFDF91CF911F910F91FF901A
:10212000EF90DF90CF9008950F931F93CF93DF939D
:10213000CDB7DEB728970FB6F894DEBF0FBECDBF80
:1021400029833A834B835C836D837E838F83988757
:10215000F80109811A812B813C8140815181628182
:10216000738181E0041715072607370741F40D81B5
:102170001E812F8138854481558166817781401782
:1021800051076207730708F080E028960FB6F894AD
:10219000DEBF0FBECDBFDF91CF911F910F9108958C
:1021A0000F931F93CF93DF93CDB7DEB728970FB66A
:1021B000F894DEBF0FBECDBF29833A834B835C8387
:1021C0006D837E838F839887F80109811A812B8123
:1021D0003C81408151816281738181E00417150740
:1021E0002607370741F40D811E812F8138854481F0
:1021F000558166817781041715072607370708F48C
:1022000080E028960FB6F894DEBF0FBECDBFDF91F9
:10221000CF911F910F910895EF92FF920F931F930B
:10222000CF93DF93CDB7DEB728970FB6F894DEBF14
:102230000FBECDBF29833A834B835C836D837E833E
:102240008F83988789819A81AB81BC81892B8A2B66
:102250008B2B51F481E04D815E816F8178854E1525
:102260005F056007710708F080E028960FB6F894C4
:10227000DEBF0FBECDBFDF91CF911F910F91FF90B9
:10228000EF900895EF92FF920F931F93CF93DF93F8
:10229000CDB7DEB7AE970FB6F894DEBF0FBECDBF99
:1022A000BE016F5F7F4FFC018685978560DD8E01E3
:1022B0000F5F1F4FF801608171816115710509F48D
:1022C0003BC0685E7F4FCE01899634D568EB72E0E3
:1022D000CE01899623D6F82ECE01899697D4F11097
:1022E00012C0F80160817181685E7F4FCE018996CE
:1022F00021D50E943404BE01675D7F4F0E948B048C
:10230000CE01899683D4F801E190F1908F01E11418
:10231000F10481F2C701489679D4C701429676D478
:10232000C7010C9673D4C701069670D4C7016ED44A
:10233000C7010E94B719BECFAE960FB6F894DEBFA4
:102340000FBECDBFDF91CF911F910F91FF90EF9006
:1023500008950F931F93CF93DF93EC018B0140E11E
:1023600057E260E070E089D288E194E09983888345
:102370001F870E87DF91CF911F910F9108952F92A4
:102380003F924F925F926F927F928F929F92AF9205
:10239000BF92CF92DF92EF92FF920F931F93CF9352
:1023A000DF9300D01F92CDB7DEB79C838B836B0188
:1023B0005A0129011801970168EB72E0E9823A831A
:1023C00090D46B807C8086E0680E711C68EB72E0B4
:1023D000C30187D48B809C808CE0880E911C68EBB5
:1023E00072E0C4017ED4EB80FC8082E1E80EF11C37
:1023F00068EB72E0C70175D40B811C81085E1F4F2A
:1024000068EB72E0C8016DD4B6018B819C817DD4EC
:10241000B501C3017AD4B201C40177D4B101C701B7
:1024200074D429813A81B901C8010F900F900F909F
:102430000F90DF91CF911F910F91FF90EF90DF9060
:10244000CF90BF90AF909F908F907F906F905F9054
:102450004F903F902F9059C40F931F93CF93DF93CA
:10246000EC018B01BA01A90108D289ED94E09983AE
:1024700088831F870E87DF91CF911F910F91089559
:102480005F926F927F928F929F92AF92BF92CF9204
:10249000DF92EF92FF920F931F93CF93DF93CDB70D
:1024A000DEB7C254D1090FB6F894DEBF0FBECDBF60
:1024B0007C016B0149015A01CE01C5968ADD8E016E
:1024C000035D1F4FC80185DD60E08CE00E94421F64
:1024D00068EB72E0CE01419604D468EB72E0CE0165
:1024E0004796FFD398E0792E602E512E6AE174E072
:1024F000CE014D96F6D3F70166857785AE01435E32
:102500005F4FCE0101960E94DC08BE016F5F7F4FD6
:10251000CE010F960E943109CE0101960E947005EE
:10252000CE014D9673D364E274E0CE014D96D9D3BB
:10253000BE01615F7F4FCE0101960E947C05AE0116
:10254000435E5F4FBE016F5F7F4FF70186859785C2
:102550000E944E09CE0101960E947005CE014D9653
:1025600055D361E374E0CE014796D8D4811166C09B
:1025700063E474E0CE014D96B4D36FE674E0CE010F
:10258000CD96AFD3F7016685778508E213E29E0109
:10259000235E3F4FAE01435C5F4FCE0101960E9428
:1025A0000C08BE016F5F7F4FCE010F960E9431096C
:1025B000CE0101960E947005CE01CD9627D3CE01A3
:1025C0004D9624D363E574E0CE0101968AD30E9430
:1025D0003404BE016F5F7F4F0E947A04CE010196E2
:1025E00015D3CE010196F5DCFE013196A62DB52D51
:1025F000872D01900D928A95E1F7B501A401CE01D6
:1026000001962CDD8E010B5C1F4F2DA53EA54FA51D
:1026100058A969A97AA98BA99CA92ADD2DA33EA353
:102620004FA358A769A77AA78BA79CA704531109A2
:10263000B7DD882319F063E774E099C066E874E0B9
:10264000CE0147966BD4811151CF63E974E0CE017E
:102650004D9647D3BE01615F7F4FCE0101960E9428
:102660007C05AE01435E5F4FBE016F5F7F4FF70198
:10267000868597850E944E09CE0101960E947005BD
:10268000CE014D96C3D2CE010196A3DC88E0FE01B7
:102690003196DE01D59601900D928A95E1F788E09A
:1026A000782EB601CE01CD9645D3F70166857785A4
:1026B000AE01435C5F4FCE0101960E948308BE01CC
:1026C0006F5F7F4FCE010F960E943109CE010196B8
:1026D0000E947005CE01CD9699D265EA74E0CE01D4
:1026E000CD96FFD2BE01615F7F4FCE0101960E9461
:1026F0007C05AE01435C5F4FBE016F5F7F4FF7010A
:10270000868597850E944E09CE0101960E9470052C
:10271000CE01CD967BD2CE0101965BDCFE013196D7
:10272000DE019D96872D01900D928A95E1F7B50106
:10273000A401CE01019692DC8E010B5C1F4F2DA5EA
:102740003EA54FA558A969A97AA98BA99CA990DC97
:102750002D8F3E8F4F8F58A369A37AA38BA39CA381
:10276000045311091DDD882371F061EB74E0C80189
:10277000B8D20E943404B8010E947A04C80146D23B
:10278000CE010F960EC06EEB74E0CE014796C6D315
:10279000882309F486CF61E08CE00E94421FCE01BD
:1027A0000F960E947005CE5BDF4F0FB6F894DEBF28
:1027B0000FBECDBFDF91CF911F910F91FF90EF9092
:1027C000DF90CF90BF90AF909F908F907F906F9051
:1027D0005F9008950F931F93CF93DF93CDB7DEB72C
:1027E000A2970FB6F894DEBF0FBECDBF8C01FC01DF
:1027F00066857785CE010F960E94070966EC74E026
:10280000CE014D966ED2BE01615F7F4FCE01019623
:102810000E947C05AE01435E5F4FBE016F5F7F4F3C
:10282000F801868597850E944E09CE0101960E9487
:102830007005CE014D96EAD1BE016F5E7F4FCE018D
:10284000019678D228E833E140E050E0BE016F5FA6
:102850007F4FC80115DECE010196D8D1CE010F966B
:102860000E947005A2960FB6F894DEBF0FBECDBFD2
:10287000DF91CF911F910F910895EF92FF920F93E7
:102880001F93CF93DF93CDB7DEB72C970FB6F89495
:10289000DEBF0FBECDBF8C018FED94E0F8019183B8
:1028A00080837801F6E0EF0EF11CC70149875A8753
:1028B0006B877C878EDBCE0101968BDB98E0FE0177
:1028C0003196D70101900D929A95E1F749855A8585
:1028D0006B857C85F80142835383648375832C96D2
:1028E0000FB6F894DEBF0FBECDBFDF91CF911F9121
:1028F0000F91FF90EF900895CF92DF92EF92FF92A9
:102900000F931F93CF93DF93CDB7DEB768970FB6C2
:10291000F894DEBF0FBECDBF7C01CE01419659DBDE
:10292000D70112964D915D916D917C911597CE01D5
:10293000099694DB6701B6E0CB0ED11C860129898C
:102940003A894B895C896D897E898F89988D90DB66
:1029500029833A834B835C836D837E838F8398873F
:102960008E01075F1F4F1CDC882389F0C80131DB13
:1029700088E0F801D60101900D928A95E1F7D70120
:10298000ED91FC910190F081E02DC70119956896B9
:102990000FB6F894DEBF0FBECDBFDF91CF911F9170
:1029A0000F91FF90EF90DF90CF900895DF92EF921C
:1029B000FF920F931F93CF93DF93CDB7DEB7C05431
:1029C000D1090FB6F894DEBF0FBECDBFCE018D96F4
:1029D00000DB8E010B5D1F4FC801FBDA68EB72E074
:1029E000CE0141967ED168EB72E0CE01479679D157
:1029F00088E0F82EE02ED12E63E474E0CE01C59677
:102A000070D16FE674E0CE01CB966BD16091CA05B0
:102A10007091CB0508E213E29E012B5C3F4FAE01A3
:102A2000455C5F4FCE0101960E940C0889819A8116
:102A3000988B8F87BE016D5F7F4FCE01419665D128
:102A4000BE01675F7F4FCE0147965FD1CE010996E9
:102A5000DDD0CE010396DAD0CE01CB96D7D0CE0111
:102A6000C596D4D063E574E0CE0101963AD10E94B8
:102A70003404BE016F5F7F4F0E948B04CE0101962C
:102A8000C5D0CE010196A5DAFE013196AE2DBD2D41
:102A90008F2D01900D928A95E1F740E157E260E0B9
:102AA00070E0CE010196DADA8E01035D1F4F2DA191
:102AB0003EA14FA158A569A57AA58BA59CA5D8DAFA
:102AC0002D8F3E8F4F8F58A369A37AA38BA39CA30E
:102AD0000C52110965DB882361F063E774E0C801DB
:102AE00000D10E943404B8010E948B04C8018ED02A
:102AF00007C066E874E0CE01479610D281117CCF02
:102B0000CE01479683D0CE01419680D0C05CDF4F86
:102B10000FB6F894DEBF0FBECDBFDF91CF911F91EE
:102B20000F91FF90EF90DF9008950F931F93CF9335
:102B3000DF930E94340440E855E262E376E00E94AD
:102B400052040E94340421E0FC0120838EE092E0D4
:102B50000DD4EC0108E010E026E030E047E050E062
:102B600060E176E00E949D04D093CB05C093CA0536
:102B7000CE010E94C6091ADF61E08CE00E94061FA8
:102B800061E08CE00E94421F0E943404FC0110822C
:102B900088E192E0EBD38C016091CA057091CB057E
:102BA00042E356E00E949D02C2E0D5E0198308830B
:102BB00080E190E0DBD38C016091CA057091CB0578
:102BC00020E137E240E050E047DC1B830A8380E1EC
:102BD00090E0CCD38C016091CA057091CB05B9DB34
:102BE0001D830C831F821E82DF91CF911F910F9155
:102BF0000895CF93DF93C2E0D5E089919991009732
:102C000011F07ADEFACFDF91CF910895FC01808137
:102C100091810C947F20CF93DF93EC01888199817F
:102C2000009711F00E947F20198218821D821C8259
:102C30001B821A82DF91CF9108950F931F93CF9338
:102C4000DF93EC018B016F5F7F4F888199810E9438
:102C50001721009731F0998388831B830A8381E0D1
:102C600001C080E0DF91CF911F910F910895CF9324
:102C7000DF93EC0188819981892B29F08A819B81DE
:102C80008617970758F4CE01D8DF882341F08C814E
:102C90009D81892B19F4E881F981108281E0DF910F
:102CA000CF910895EF92FF920F931F93CF93DF93ED
:102CB000EC017B018A01BA01DADF811103C0CE0188
:102CC000AADF07C01D830C83B701888199810E9408
:102CD0003E22CE01DF91CF911F910F91FF90EF9097
:102CE0000895FC01118210821382128215821482CF
:102CF0006115710549F0FB0101900020E9F731975A
:102D0000AF01461B570BCECF0895CF93DF93EC0155
:102D1000FB018617970751F060817181611571057C
:102D200021F044815581BEDF01C075DFCE01DF9106
:102D3000CF910895FC0111821082138212821582B4
:102D40001482E3CFCF93DF93EC016115710551F04D
:102D5000FB0101900020E9F73197AF01461B570BAB
:102D6000A1DF01C058DFCE01DF91CF910895CF934D
:102D7000DF931F921F92CDB7DEB7FC011182108244
:102D8000138212821582148269831A82BE016F5FD8
:102D90007F4FD8DF0F900F90DF91CF9108950F9361
:102DA0001F93CF93DF93CDB7DEB762970FB6F8943A
:102DB000DEBF0FBECDBF8C01CB01F80111821082A6
:102DC000138212821582148250E0BE016F5F7F4F22
:102DD0000E947C22BE016F5F7F4FC801B3DF629605
:102DE0000FB6F894DEBF0FBECDBFDF91CF911F911C
:102DF0000F9108950F931F93CF93DF93CDB7DEB755
:102E0000A2970FB6F894DEBF0FBECDBF8C01CB01E9
:102E1000BA01F80111821082138212821582148283
:102E200030E0AE014F5F5F4F0E949B22BE016F5F9B
:102E30007F4FC80187DFA2960FB6F894DEBF0FBEA2
:102E4000CDBFDF91CF911F910F910895EF92FF9227
:102E50000F931F93CF93DF93FC012481358161157C
:102E6000710511F480E018C041155105A1F07B01F6
:102E7000EC018A01020F131FB801F9DE882391F3D8
:102E8000288139818C819D81B701820F931F0E9417
:102E90003E221D830C8381E0DF91CF911F910F9122
:102EA000FF90EF900895CF93DF931F921F92CDB7BD
:102EB000DEB769831A8241E050E0BE016F5F7F4F49
:102EC000C5DF0F900F90DF91CF910895CF93DF93DF
:102ED000EC01FB014481558160817181B7DF811173
:102EE00002C0CE0198DECE01DF91CF910895CF933D
:102EF000DF93EC016115710559F0FB010190002091
:102F0000E9F73197AF01461B570BA0DF811102C0D3
:102F1000CE0181DECE01DF91CF910895FC012481A5
:102F20003581232B31F421E061157105A1F0FB01FE
:102F300008C0FC01808191816115710531F421E0A7
:102F4000FC018081882339F005C00E94352221E0F0
:102F5000892B09F020E0822F0895DB011496ED9172
:102F6000FC911597DC0114962D913C9115972E1B21
:102F70003F0B24173507A0F02D913C912115310509
:102F800079F0DB016D917C916115710549F0CA0101
:102F9000AF01820F931F0E94452221E0892B09F087
:102FA00020E0822F08950F931F93CF93DF93411555
:102FB000510519F16115710501F1DC011496ED91CE
:102FC000FC9115972E173F0718F0FB01108215C0D2
:102FD000E21BF30BEA012197EC17FD0708F4EF0160
:102FE0008B01FC0160817181620F731FAE01C8010A
:102FF0000E945322C00FD11F1882DF91CF911F91E1
:103000000F910895CF93DF93FC01248135814217FE
:10301000530778F4C081D181772767FD7095CE0181
:10302000840F951F0E942A22009719F08C1B9D0B7C
:1030300002C08FEF9FEFDF91CF91089540E050E005
:10304000E1CFCF93DF93FC012481358142175307F1
:1030500080F4FB01DC01CD91DC9160817181CE01B6
:10306000840F951F0E946222009719F08C1B9D0B04
:1030700002C08FEF9FEFDF91CF91089540E050E0C5
:10308000E0CFBF92CF92DF92EF92FF920F931F9308
:10309000CF93DF937C016B018A01E9012417350787
:1030A00020F4812F8901C42FD82F68EB72E0C7016B
:1030B00018DED60114968D919C9115978017910773
:1030C000C8F08C179D0708F4EC01D601ED91FC9136
:1030D0001197EC0FFD1FB08010824D915C91BA01E9
:1030E000600F711FC7012EDED601ED91FC91EC0F30
:1030F000FD1FB082C701DF91CF911F910F91FF900B
:10310000EF90DF90CF90BF900895FC018081918176
:10311000009711F00C94FB2160E070E0CB01089562
:10312000CF92DF92EF92FF920F931F93CF93DF9393
:103130006C01EB017B01E40EF51E00E010E0CE1502
:10314000DF0561F06991D601ED91FC910190F0816C
:10315000E02DC6011995080F191FF1CFC801DF91A5
:10316000CF911F910F91FF90EF90DF90CF90089536
:103170006115710579F0FB0101900020E9F73197A5
:10318000AF01461B570BDC01ED91FC910280F381EE
:10319000E02D199480E090E00895DC01ED91FC9120
:1031A000DB0114964D915C9115976D917C91028095
:1031B000F381E02D1994DCCFDC01ED91FC910190BD
:1031C000F081E02D19940F931F93CF93DF93EC01BF
:1031D0006DE0F2DF8C016AE0CE01EEDF800F911F1F
:1031E000DF91CF911F910F9108950F931F93CF936C
:1031F000DF93EC01D2DF8C01CE01E5DF800F911F60
:10320000DF91CF911F910F9108958F929F92AF926E
:10321000BF92CF92DF92EF92FF920F931F93CF93C3
:10322000DF93CDB7DEB7A1970FB6F894DEBF0FBE20
:10323000CDBF6C01142FE52FCB01022F19A2223034
:1032400008F40AE07E0121E2E20EF11C802E912CAE
:10325000A12CB12C612F7E2FA50194017DD6029F58
:103260001019112481E0E81AF1081A3014F4105DE5
:1032700001C0195CF7011083122FE32FCA01232B21
:10328000242B252B39F7B701C60172DFA1960FB6A3
:10329000F894DEBF0FBECDBFDF91CF911F910F918C
:1032A000FF90EF90DF90CF90BF90AF909F908F9066
:1032B0000895CF92DF92EF92FF920F931F93CF93D7
:1032C000DF93EC016A017B012115310579F4E88176
:1032D000F9810190F081E02D642FDF91CF911F9152
:1032E0000F91FF90EF90DF90CF9019942A30310525
:1032F000D9F477FF18C06DE25FDF8C0144275527B2
:10330000BA014C195D096E097F092AE0CE017DDF03
:10331000800F911FDF91CF911F910F91FF90EF9040
:10332000DF90CF9008952AE0B701A601CE01DF918A
:10333000CF911F910F91FF90EF90DF90CF9065CFCD
:103340000F931F93CF93DF93EC019A01AB01662794
:1033500057FD6095762FADDF8C01CE0134DF800FF5
:10336000911FDF91CF911F910F91089533C6C7C66A
:103370000895089598D4FDDFD8DBC5E4DBE139DC9E
:103380002097E9F382D1FBCFFC0124853585F90133
:10339000E05CFF4F80819181329620813181805C99
:1033A0009F4F821B930B60E470E0C3C5DC011C9649
:1033B000ED91FC911D97DF01A05CBF4F2D913C91D9
:1033C000119712968D919C9111972817390739F012
:1033D0008D919C91E80FF91F808190E008958FEF07
:1033E0009FEF0895FC01A485B585FD01E05CFF4FCA
:1033F000208131813296808191812817390779F0B7
:1034000080819181A80FB91F8C91208131812F5F1C
:103410003F4F2F7333273183208390E008958FEF40
:103420009FEF0895FC0181A1882329F0A489B58923
:103430008C9186FFFBCF11A208950F931F93CF931A
:10344000DF93FC01A685B7858D01005C1F4FE80165
:103450008881998101968F739927AD014E5B5F4FEB
:10346000EA012881398182179307D1F3E801288185
:103470003981A20FB31F6C93A685B785A05CBF4F9F
:1034800011969C938E93A689B7892C9181E090E048
:10349000078C02C0880F991F0A94E2F7822B8C9345
:1034A00081E081A30488F589E02D80818064808398
:1034B00081E090E0DF91CF911F910F910895FB0182
:1034C000E05CFF4F208131812F5F3F4F2F73332707
:1034D000DB01AE5BBF4F4D915C912417350741F086
:1034E00040815181DB01A40FB51F8C933183208370
:1034F000089508951F920F920FB60F9211240BB6E4
:103500000F922F933F934F935F936F937F938F937C
:103510009F93AF93BF93EF93FF938091C00082FD81
:1035200006C08091C60060E378E0C9DF02C08091E8
:10353000C600FF91EF91BF91AF919F918F917F91C5
:103540006F915F914F913F912F910F900BBE0F9014
:103550000FBE0F901F90189508951F920F920FB6EF
:103560000F9211240BB60F922F933F934F935F93BB
:103570006F937F938F939F93AF93BF93EF93FF933B
:103580008091C80082FD06C08091CE0068EA77E095
:1035900096DF02C08091CE00FF91EF91BF91AF9175
:1035A0009F918F917F916F915F914F913F912F915B
:1035B0000F900BBE0F900FBE0F901F90189508959F
:1035C0001F920F920FB60F9211240BB60F922F93EA
:1035D0003F934F935F936F937F938F939F93AF939B
:1035E000BF93EF93FF938091D00082FD06C080913E
:1035F000D60060E277E063DF02C08091D600FF91E1
:10360000EF91BF91AF919F918F917F916F915F915A
:103610004F913F912F910F900BBE0F900FBE0F90C7
:103620001F90189508951F920F920FB60F921124B4
:103630000BB60F922F933F934F935F936F937F93AC
:103640008F939F93AF93BF93EF93FF93809130013C
:1036500082FD06C08091360168E976E030DF02C065
:1036600080913601FF91EF91BF91AF919F918F9122
:103670007F916F915F914F913F912F910F900BBE72
:103680000F900FBE0F901F90189582E396E07CDE9E
:10369000892B09F02EDF80E196E076DE892B09F098
:1036A0005BDF8EEE95E070DE892B09F088DF8CEC15
:1036B00095E06ADE892B09F0B5CF08951F920F922D
:1036C0000FB60F9211240BB60F922F933F938F9347
:1036D0009F93EF93FF9320912C0830912D088091B8
:1036E0002E0890912F082817390731F48091C100D6
:1036F0008F7D8093C10014C0E0912E08F0912F08B7
:10370000E451F84F208180912E0890912F08019666
:103710008F73992790932F0880932E082093C600CB
:10372000FF91EF919F918F913F912F910F900BBE41
:103730000F900FBE0F901F9018951F920F920FB60B
:103740000F9211240BB60F922F933F938F939F9359
:10375000EF93FF932091A4073091A5078091A607CE
:103760009091A7072817390731F48091C9008F7D00
:103770008093C90014C0E091A607F091A707EC5907
:10378000F84F20818091A6079091A70701968F732B
:1037900099279093A7078093A6072093CE00FF91C7
:1037A000EF919F918F913F912F910F900BBE0F90B2
:1037B0000FBE0F901F9018951F920F920FB60F9289
:1037C00011240BB60F922F933F938F939F93EF93F8
:1037D000FF9320911C0730911D0780911E07909147
:1037E0001F072817390731F48091D1008F7D80930E
:1037F000D10014C0E0911E07F0911F07E452F94F69
:10380000208180911E0790911F0701968F73992741
:1038100090931F0780931E072093D600FF91EF918E
:103820009F918F913F912F910F900BBE0F900FBEE4
:103830000F901F9018951F920F920FB60F921124A0
:103840000BB60F922F933F938F939F93EF93FF931A
:103850002091940630919506809196069091970656
:103860002817390731F4809131018F7D8093310120
:1038700014C0E0919606F0919706EC5AF94F20811A
:10388000809196069091970601968F739927909351
:1038900097068093960620933601FF91EF919F91B2
:1038A0008F913F912F910F900BBE0F900FBE0F90F5
:1038B0001F901895CF92DF92EF92FF920F931F9374
:1038C000CF93DF93EC016A017B01411581EE58072C
:1038D0006105710509F1EC89FD8981E090E008A09E
:1038E00002C0880F991F0A94E2F7808360E079E0B4
:1038F0008DE390E0A70196012FD389019A01015031
:1039000011092109310936952795179507959801D1
:10391000011580E11807A0F0EC89FD89108260E8AC
:1039200074E88EE190E0A701960116D3DA01C9018F
:103930000197A109B109B695A795979587959C011F
:10394000E889F9893083EA89FB89208319A2EE8905
:10395000FF89408181E090E09C010C8C02C0220F25
:10396000331F0A94E2F7242B2083EE89FF894081DC
:103970009C010D8C02C0220F331F0A94E2F7242B06
:103980002083EE89FF8940819C010E8C02C0220FAA
:10399000331F0A94E2F7242B2083EE89FF892081CC
:1039A0000F8C02C0880F991F0A94E2F7809582233A
:1039B0008083DF91CF911F910F91FF90EF90DF9067
:1039C000CF900895CF92DF92EF92FF92E2E3F6E07C
:1039D0001382128288EEC82E83E0D82EE12CF12CBF
:1039E000C482D582E682F78265EE74E071836083DB
:1039F00080E398E0958784878CEE97E097878687A9
:103A000085EC90E0918B808B84EC90E0938B828BA3
:103A100080EC90E0958B848B81EC90E0978B868B8B
:103A200082EC90E0918F808F86EC90E0938F828F74
:103A300044E0448F33E0358F27E0268F95E0978F61
:103A400081E080A3E0E1F6E013821282C482D58295
:103A5000E682F78271836083A8EAB7E0B587A4871E
:103A6000A4E6B7E0B787A687ADECB0E0B18BA08B3A
:103A7000ACECB0E0B38BA28BA8ECB0E0B58BA48B20
:103A8000A9ECB0E0B78BA68BAAECB0E0B18FA08F09
:103A9000AEECB0E0B38FA28F448F358F268F978F17
:103AA00080A3EEEEF5E013821282C482D582E68214
:103AB000F78271836083A0E2B7E0B587A487ACED9D
:103AC000B6E0B787A687A5EDB0E0B18BA08BA4EDDB
:103AD000B0E0B38BA28BA0EDB0E0B58BA48BA1EDD1
:103AE000B0E0B78BA68BA2EDB0E0B18FA08FA6EDB2
:103AF000B0E0B38FA28F448F358F268F978F80A32E
:103B0000ECECF5E013821282C482D582E682F78261
:103B10007183608368E976E07587648764E576E0A1
:103B20007787668765E371E0718B608B64E371E092
:103B3000738B628B60E371E0758B648B61E371E082
:103B4000778B668B62E371E0718F608F66E371E063
:103B5000738F628F448F358F268F978F80A3FF904E
:103B6000EF90DF90CF9008951F920F920FB60F92B3
:103B700011242F933F938F939F93AF93BF93809183
:103B8000750890917608A0917708B09178083091E7
:103B9000740823E0230F2D3720F40196A11DB11DD9
:103BA00005C026E8230F0296A11DB11D20937408BD
:103BB0008093750890937608A0937708B09378085F
:103BC0008091790890917A08A0917B08B0917C0847
:103BD0000196A11DB11D8093790890937A08A09356
:103BE0007B08B0937C08BF91AF919F918F913F91DB
:103BF0002F910F900FBE0F901F9018952FB7F8942C
:103C00006091750870917608809177089091780896
:103C10002FBF08953FB7F8948091790890917A0862
:103C2000A0917B08B0917C0826B5A89B05C02F3FCA
:103C300019F00196A11DB11D3FBFBA2FA92F982FD2
:103C40008827820F911DA11DB11DBC01CD0142E04D
:103C5000660F771F881F991F4A95D1F70895CF9255
:103C6000DF92EF92FF92CF93DF936B017C01D2DF63
:103C7000EB01C114D104E104F10471F0CBDF6C1B42
:103C80007D0B683E7340A8F381E0C81AD108E108B3
:103C9000F108C851DC4FEDCFDF91CF91FF90EF904D
:103CA000DF90CF900895789484B5826084BD84B508
:103CB000816084BD85B5826085BD85B5816085BD27
:103CC000EEE6F0E0808181608083E1E8F0E0108240
:103CD000808182608083808181608083E0E8F0E081
:103CE000808181608083E1EBF0E08081846080836B
:103CF000E0EBF0E0808181608083E1E9F0E08081A9
:103D000082608083808181608083E0E9F0E080814F
:103D100081608083E1EAF0E080818260808380813D
:103D200081608083E0EAF0E0808181608083E1E26D
:103D3000F1E0808182608083808181608083E0E225
:103D4000F1E0808181608083EAE7F0E08081846037
:103D50008083808182608083808181608083808194
:103D6000806880831092C100089590E0FC01319733
:103D7000E131F10508F049C08827EE58FF4F8F4F19
:103D80000DC1809180008F7703C0809180008F7D6E
:103D900080938000089584B58F7702C084B58F7DAD
:103DA00084BD08958091B0008F7703C08091B000EA
:103DB0008F7D8093B0000895809190008F7707C029
:103DC000809190008F7D03C080919000877F8093C9
:103DD000900008958091A0008F7707C08091A00087
:103DE0008F7D03C08091A000877F8093A0000895FD
:103DF000809120018F7707C0809120018F7D03C0C3
:103E000080912001877F809320010895CF93DF93D5
:103E100090E0FC01E45BFE4F2491FC01EE56FE4F66
:103E20008491882361F190E0880F991FFC01E45F81
:103E3000FD4FC591D491FC01EE50FE4FA591B49178
:103E4000611109C09FB7F8948881209582238883E7
:103E5000EC912E230BC0623061F49FB7F894388147
:103E6000822F809583238883EC912E2B2C939FBFE8
:103E700006C08FB7F894E8812E2B28838FBFDF917F
:103E8000CF9108951F93CF93DF93282F30E0F9014E
:103E9000EA5FFE4F8491F901E45BFE4FD491F90192
:103EA000EE56FE4FC491CC23C1F0162F81115DDF79
:103EB000EC2FF0E0EE0FFF1FEE50FE4FA591B491F6
:103EC0008FB7F894111105C09C91ED2FE095E9236F
:103ED00002C0EC91ED2BEC938FBFDF91CF911F913E
:103EE0000895CF93DF93282F30E0F901EA5FFE4F6A
:103EF0008491F901E45BFE4FD491F901EE56FE4F37
:103F0000C491CC2389F0811130DFEC2FF0E0EE0F6B
:103F1000FF1FE852FE4FA591B491EC91ED2381E093
:103F200090E021F480E002C080E090E0DF91CF914A
:103F3000089597FB072E16F4009406D077FD08D05D
:103F400035D007FC05D03EF4909581959F4F08959C
:103F5000709561957F4F0895A1E21A2EAA1BBB1B95
:103F6000FD010DC0AA1FBB1FEE1FFF1FA217B30745
:103F7000E407F50720F0A21BB30BE40BF50B661F5B
:103F8000771F881F991F1A9469F76095709580951F
:103F900090959B01AC01BD01CF010895EE0FFF1F6D
:103FA000881F8BBF0790F691E02D1994AA1BBB1BAD
:103FB00051E107C0AA1FBB1FA617B70710F0A61B29
:103FC000B70B881F991F5A95A9F780959095BC014A
:103FD000CD010895CF93DF938230910510F482E0F4
:103FE00090E0E0917F08F091800820E030E0C0E0B0
:103FF000D0E0309711F14081518148175907C0F046
:104000004817590761F482819381209719F09B83A7
:104010008A832BC09093800880937F0826C0211547
:10402000310519F04217530718F49A01BE01DF0158
:10403000EF010280F381E02DDCCF2115310509F17C
:10404000281B390B2430310590F412968D919C91E8
:1040500013976115710521F0FB019383828304C0DE
:104060009093800880937F08FD01329644C0FD0143
:10407000E20FF31F81939193225031092D933C93CA
:104080003AC020917D0830917E08232B41F4209185
:1040900002023091030230937E0820937D08209124
:1040A0000002309101022115310541F42DB73EB7D0
:1040B0004091040250910502241B350BE0917D08CC
:1040C000F0917E08E217F307A0F42E1B3F0B281790
:1040D000390778F0AC014E5F5F4F2417350748F081
:1040E0004E0F5F1F50937E0840937D0881939193FC
:1040F00002C0E0E0F0E0CF01DF91CF9108950F938F
:104100001F93CF93DF93009709F48CC0FC01329783
:104110001382128200917F08109180080115110509
:1041200081F420813181820F931F20917D0830918D
:104130007E082817390779F5F0937E08E0937D080B
:1041400071C0D80140E050E0AE17BF0750F412969E
:104150002D913C911397AD012115310509F1D9013C
:10416000F3CF9D01DA013383228360817181860F51
:10417000971F8217930769F4EC0128813981260F74
:10418000371F2E5F3F4F318320838A819B8193832A
:104190008283452B29F4F0938008E0937F0842C086
:1041A0001396FC93EE931297ED01499159919E015C
:1041B000240F351FE217F30771F480819181840F7A
:1041C000951F029611969C938E93828193811396EC
:1041D0009C938E931297E0E0F0E0D80112968D91B7
:1041E0009C911397009719F0F8018C01F6CF8D91EF
:1041F0009C9198012E5F3F4F820F931F20917D0865
:1042000030917E082817390769F4309729F4109205
:10421000800810927F0802C01382128210937E08D9
:1042200000937D08DF91CF911F910F9108956F92B8
:104230007F928F929F92AF92BF92CF92DF92EF9236
:10424000FF920F931F93CF93DF93EC01009781F4BC
:10425000CB01DF91CF911F910F91FF90EF90DF90F5
:10426000CF90BF90AF909F908F907F906F90B2CE85
:10427000FC01E60FF71F9C0122503109E217F307FA
:1042800008F4A8C0D9010D911C91119706171707C2
:10429000A8F00530110508F49BC0C80104978617E3
:1042A000970708F495C002501109061B170B0193DC
:1042B00011936D937C93CF0122DF8AC05B01A01A1A
:1042C000B10A4C01800E911EA0917F08B091800828
:1042D00040E050E0E12CF12C109709F44AC0A815F9
:1042E000B905D1F56D907C901197630182E0C80EFD
:1042F000D11CCA14DB0480F1A3014A195B096A01CD
:1043000082E0C80ED11C1296BC9012971396AC9105
:10431000B5E0CB16D10440F0B282A3835183408331
:10432000D9016D937C930AC00E5F1F4FC301800FAC
:10433000911FF90191838083EB2DFA2FE114F10491
:1043400031F0D7011396FC93EE93129741C0F0938E
:104350008008E0937F083CC08D919C91119748178D
:10436000590708F4AC017D0112960D90BC91A02D67
:10437000B3CF80917D0890917E0888159905E1F46E
:1043800046175707C8F480910002909101020097E8
:1043900041F48DB79EB74091040250910502841BF1
:1043A000950BE817F907B0F4F0937E08E0937D08C9
:1043B000F901718360830CC0CB010CDE7C01009796
:1043C00049F0A801BE013DD0CE0199DEC70104C06D
:1043D000CE0102C080E090E0DF91CF911F910F915C
:1043E000FF90EF90DF90CF90BF90AF909F908F9015
:1043F0007F906F9008951F93FC0199278827BC0137
:10440000E89411911032E9F3193010F01E30C8F31E
:104410001B3249F01D3241F4689405C0BED0610FD3
:10442000711D811D911D119110531A30B8F33EF486
:1044300090958095709561957F4F8F4F9F4F1F91FD
:104440000895FB01DC0102C001900D9241505040E3
:10445000D8F70895FC018191861721F08823D9F7B8
:10446000992708953197CF010895FB01DC018D91C3
:10447000019080190110D9F3990B0895FB01DC011B
:1044800001900D920020E1F70895FB01DC014150FD
:10449000504030F08D910190801919F40020B9F747
:1044A000881B990B0895FB01DC014150504048F0F6
:1044B00001900D920020C9F701C01D92415050405B
:1044C000E0F70895FB0151915523A9F0BF01DC01EC
:1044D0004D9145174111E1F759F4CD0101900020AC
:1044E00049F04D9140154111C9F3FB014111EFCF46
:1044F00081E090E001970895FB019F01E89442302C
:10450000BCF04532ACF44A3029F497FB1EF4909588
:1045100081959F4F642F772749DD805D8A330CF0AA
:10452000895D8193CB010097A9F716F45DE2519361
:104530001082C90147C0FA01CF93FF93EF93223055
:104540003CF125322CF5C22FE894CA3049F497FB90
:104550003EF490958095709561957F4F8F4F9F4F5A
:104560002C2F332744275527FF93EF93F5DCEF914A
:10457000FF91605D6A330CF0695D6193B901CA0116
:10458000605070408040904059F716F4CDE2C193DE
:1045900010828F919F91CF9115C0592F482F372F9F
:1045A000262F660F771F881F991F660F771F881F9A
:1045B000991F620F731F841F951F660F771F881F37
:1045C000991F0895DC01FC01672F71917723E1F7B2
:1045D000329704C07C916D9370836291AE17BF07D0
:1045E000C8F3089511E0C5E1D1E000E005C0802FD7
:1045F000FE01D4DC2196011DC631D10780E00807F9
:06460000B1F7F894FFCFB2
:1046060000008108200052494E470041544800529C
:10461600454356007C0052554E20434F4D544F5251
:1046260020434F4D414E44200000000000B8034D8A
:104636004F44554C45204D3935204F4E0041544589
:10464600300041542B4346554E3F0041542B4350B6
:10465600494E3F0041542B5141554443483D320099
:1046660041542B514D49433D322C31320041542B9C
:10467600434D47463D310041542B51475053434625
:10468600473F0041542B514750534346473D22472D
:104696005053494E4954222C310041542B51494F15
:1046A60050454E3D2200222C2200222C0041542B44
:1046B600514953454E44001A0041542B514750531B
:1046C60052443D224E4D45412F524D432200202D4E
:1046D6002D2000524553504F4E5345204641494CDC
:1046E6000044495341424C452045434F3A20004D32
:1046F60039352052454144593A200053494D20430B
:104706004152443A2000415544494F3A20004D4910
:10471600433A200054455854204D4F44453A2020F2
:1047260000494E464F204750533A2000494E4954BF
:10473600204750533A200041542B514944454143A8
:10474600543D3F0044455341435449564520204774
:104756005052532F435344205044503A2000415462
:104766002B51494445414354004552524F5200444F
:10477600455341435449564520475052532F4353BE
:1047860044205044503A200041542B514953484F3D
:104796005752413D310053484F57204144445245FA
:1047A60053532053454E4445523A200041542B5111
:1047B60049484541443D3100414444204950204840
:1047C6004541443A200041542B514953484F5750D4
:1047D600543D310053484F572050524F544F434F8A
:1047E6004C3A2000524543562046524F4D3A004916
:1047F600504400544350002B434D474C3A2000414F
:10480600542B434D474C3D2252454320554E52456D
:104816004144220000000000421141542B514953EB
:1048260054415400544350205354415455533A2054
:104836000053544154453A20434F4E4E454354206D
:104846004F4B003139322E3234312E3136362E323C
:1048560033300054525920535441525420434F4E42
:104866004E45435420544F205345525645522055E9
:10487600445000434F4E4E454354494F4E205449F1
:104886004D454F555400434F4E4E454354204641E7
:10489600494C00494E495420434F4E4E45435449D6
:1048A6004F4E3A200053454E4420444154413A204D
:1048B6000053454E442054494D454F5554005345E9
:1048C6004E44204F4B00475053204C4F43415449D0
:1048D6004F4E3A200000000000EA1300000000B826
:1048E60019000000001D1A9018C419F219D61912E1
:0248F6001A00A6
:00000001FF
